{
  "abi": [
    {
      "inputs": [],
      "stateMutability": "nonpayable",
      "type": "constructor"
    },
    {
      "inputs": [],
      "name": "chainlog",
      "outputs": [
        {
          "internalType": "contract ChainlogAbstract",
          "name": "",
          "type": "address"
        }
      ],
      "stateMutability": "view",
      "type": "function"
    },
    {
      "inputs": [],
      "name": "dai",
      "outputs": [
        {
          "internalType": "contract DaiAbstract",
          "name": "",
          "type": "address"
        }
      ],
      "stateMutability": "view",
      "type": "function"
    },
    {
      "inputs": [],
      "name": "daiJoin",
      "outputs": [
        {
          "internalType": "contract DaiJoinAbstract",
          "name": "",
          "type": "address"
        }
      ],
      "stateMutability": "view",
      "type": "function"
    },
    {
      "inputs": [
        {
          "internalType": "contract GemJoinAbstract",
          "name": "join",
          "type": "address"
        }
      ],
      "name": "deployIlk",
      "outputs": [],
      "stateMutability": "nonpayable",
      "type": "function"
    },
    {
      "inputs": [],
      "name": "dog",
      "outputs": [
        {
          "internalType": "contract DogAbstract",
          "name": "",
          "type": "address"
        }
      ],
      "stateMutability": "view",
      "type": "function"
    },
    {
      "inputs": [],
      "name": "jug",
      "outputs": [
        {
          "internalType": "contract JugAbstract",
          "name": "",
          "type": "address"
        }
      ],
      "stateMutability": "view",
      "type": "function"
    },
    {
      "inputs": [
        {
          "internalType": "contract ChainlogAbstract",
          "name": "_chainlog",
          "type": "address"
        }
      ],
      "name": "loadFromChainlog",
      "outputs": [],
      "stateMutability": "nonpayable",
      "type": "function"
    },
    {
      "inputs": [],
      "name": "newUser",
      "outputs": [
        {
          "internalType": "contract MCDUser",
          "name": "",
          "type": "address"
        }
      ],
      "stateMutability": "nonpayable",
      "type": "function"
    },
    {
      "inputs": [],
      "name": "pot",
      "outputs": [
        {
          "internalType": "contract PotAbstract",
          "name": "",
          "type": "address"
        }
      ],
      "stateMutability": "view",
      "type": "function"
    },
    {
      "inputs": [],
      "name": "spotter",
      "outputs": [
        {
          "internalType": "contract SpotAbstract",
          "name": "",
          "type": "address"
        }
      ],
      "stateMutability": "view",
      "type": "function"
    },
    {
      "inputs": [],
      "name": "vat",
      "outputs": [
        {
          "internalType": "contract VatAbstract",
          "name": "",
          "type": "address"
        }
      ],
      "stateMutability": "view",
      "type": "function"
    },
    {
      "inputs": [],
      "name": "vow",
      "outputs": [
        {
          "internalType": "contract VowAbstract",
          "name": "",
          "type": "address"
        }
      ],
      "stateMutability": "view",
      "type": "function"
    },
    {
      "inputs": [],
      "name": "wbtc",
      "outputs": [
        {
          "internalType": "contract DSTokenAbstract",
          "name": "",
          "type": "address"
        }
      ],
      "stateMutability": "view",
      "type": "function"
    },
    {
      "inputs": [],
      "name": "wbtcAClip",
      "outputs": [
        {
          "internalType": "contract ClipAbstract",
          "name": "",
          "type": "address"
        }
      ],
      "stateMutability": "view",
      "type": "function"
    },
    {
      "inputs": [],
      "name": "wbtcAJoin",
      "outputs": [
        {
          "internalType": "contract GemJoinAbstract",
          "name": "",
          "type": "address"
        }
      ],
      "stateMutability": "view",
      "type": "function"
    },
    {
      "inputs": [],
      "name": "wbtcPip",
      "outputs": [
        {
          "internalType": "contract OsmAbstract",
          "name": "",
          "type": "address"
        }
      ],
      "stateMutability": "view",
      "type": "function"
    },
    {
      "inputs": [],
      "name": "weth",
      "outputs": [
        {
          "internalType": "contract DSTokenAbstract",
          "name": "",
          "type": "address"
        }
      ],
      "stateMutability": "view",
      "type": "function"
    },
    {
      "inputs": [],
      "name": "wethAClip",
      "outputs": [
        {
          "internalType": "contract ClipAbstract",
          "name": "",
          "type": "address"
        }
      ],
      "stateMutability": "view",
      "type": "function"
    },
    {
      "inputs": [],
      "name": "wethAJoin",
      "outputs": [
        {
          "internalType": "contract GemJoinAbstract",
          "name": "",
          "type": "address"
        }
      ],
      "stateMutability": "view",
      "type": "function"
    },
    {
      "inputs": [],
      "name": "wethPip",
      "outputs": [
        {
          "internalType": "contract OsmAbstract",
          "name": "",
          "type": "address"
        }
      ],
      "stateMutability": "view",
      "type": "function"
    }
  ],
  "bytecode": {
    "object": "0x60806040523480156200001157600080fd5b506200003173da0ab1e0017debcd72be8599041a2aa3ba7e740f62000037565b6200096e565b600080546001600160a01b0319166001600160a01b0383169081179091556040516321f8a72160e01b8152661350d117d5905560ca1b60048201526321f8a72190602401602060405180830381865afa15801562000099573d6000803e3d6000fd5b505050506040513d601f19601f82011682018060405250810190620000bf91906200093c565b600180546001600160a01b0319166001600160a01b039283161790556000546040516321f8a72160e01b81526b4d43445f4a4f494e5f44414960a01b60048201529116906321f8a72190602401602060405180830381865afa1580156200012a573d6000803e3d6000fd5b505050506040513d601f19601f820116820180604052508101906200015091906200093c565b600280546001600160a01b0319166001600160a01b039283161790556000546040516321f8a72160e01b8152664d43445f44414960c81b60048201529116906321f8a72190602401602060405180830381865afa158015620001b6573d6000803e3d6000fd5b505050506040513d601f19601f82011682018060405250810190620001dc91906200093c565b600380546001600160a01b0319166001600160a01b039283161790556000546040516321f8a72160e01b8152664d43445f564f5760c81b60048201529116906321f8a72190602401602060405180830381865afa15801562000242573d6000803e3d6000fd5b505050506040513d601f19601f820116820180604052508101906200026891906200093c565b600480546001600160a01b039283166001600160a01b03199091161781556000546040516321f8a72160e01b81529216916321f8a72191620002b89101664d43445f444f4760c81b815260200190565b602060405180830381865afa158015620002d6573d6000803e3d6000fd5b505050506040513d601f19601f82011682018060405250810190620002fc91906200093c565b600580546001600160a01b0319166001600160a01b039283161790556000546040516321f8a72160e01b8152661350d117d413d560ca1b60048201529116906321f8a72190602401602060405180830381865afa15801562000362573d6000803e3d6000fd5b505050506040513d601f19601f820116820180604052508101906200038891906200093c565b600680546001600160a01b0319166001600160a01b039283161790556000546040516321f8a72160e01b8152664d43445f4a554760c81b60048201529116906321f8a72190602401602060405180830381865afa158015620003ee573d6000803e3d6000fd5b505050506040513d601f19601f820116820180604052508101906200041491906200093c565b600780546001600160a01b0319166001600160a01b039283161790556000546040516321f8a72160e01b8152671350d117d4d413d560c21b60048201529116906321f8a72190602401602060405180830381865afa1580156200047b573d6000803e3d6000fd5b505050506040513d601f19601f82011682018060405250810190620004a191906200093c565b600880546001600160a01b0319166001600160a01b039283161790556000546040516321f8a72160e01b81526208aa8960eb1b60048201529116906321f8a72190602401602060405180830381865afa15801562000503573d6000803e3d6000fd5b505050506040513d601f19601f820116820180604052508101906200052991906200093c565b600980546001600160a01b0319166001600160a01b039283161790556000546040516321f8a72160e01b8152660a092a0be8aa8960cb1b60048201529116906321f8a72190602401602060405180830381865afa1580156200058f573d6000803e3d6000fd5b505050506040513d601f19601f82011682018060405250810190620005b591906200093c565b600a80546001600160a01b0319166001600160a01b039283161790556000546040516321f8a72160e01b81526d4d43445f4a4f494e5f4554485f4160901b60048201529116906321f8a72190602401602060405180830381865afa15801562000622573d6000803e3d6000fd5b505050506040513d601f19601f820116820180604052508101906200064891906200093c565b600b80546001600160a01b0319166001600160a01b039283161790556000546040516321f8a72160e01b81526d4d43445f434c49505f4554485f4160901b60048201529116906321f8a72190602401602060405180830381865afa158015620006b5573d6000803e3d6000fd5b505050506040513d601f19601f82011682018060405250810190620006db91906200093c565b600c80546001600160a01b0319166001600160a01b039283161790556000546040516321f8a72160e01b8152635742544360e01b60048201529116906321f8a72190602401602060405180830381865afa1580156200073e573d6000803e3d6000fd5b505050506040513d601f19601f820116820180604052508101906200076491906200093c565b600d80546001600160a01b0319166001600160a01b039283161790556000546040516321f8a72160e01b8152675049505f5742544360c01b60048201529116906321f8a72190602401602060405180830381865afa158015620007cb573d6000803e3d6000fd5b505050506040513d601f19601f82011682018060405250810190620007f191906200093c565b600e80546001600160a01b0319166001600160a01b039283161790556000546040516321f8a72160e01b81526e4d43445f4a4f494e5f574254435f4160881b60048201529116906321f8a72190602401602060405180830381865afa1580156200085f573d6000803e3d6000fd5b505050506040513d601f19601f820116820180604052508101906200088591906200093c565b600f80546001600160a01b0319166001600160a01b039283161790556000546040516321f8a72160e01b81526e4d43445f434c49505f574254435f4160881b60048201529116906321f8a72190602401602060405180830381865afa158015620008f3573d6000803e3d6000fd5b505050506040513d601f19601f820116820180604052508101906200091991906200093c565b601080546001600160a01b0319166001600160a01b039290921691909117905550565b6000602082840312156200094f57600080fd5b81516001600160a01b03811681146200096757600080fd5b9392505050565b6120fe806200097e6000396000f3fe608060405234801561001057600080fd5b506004361061012c5760003560e01c80634ba2363a116100ad578063c3b3ad7f11610071578063c3b3ad7f1461025f578063ce6f74aa14610272578063db0f6bb514610285578063f4b9fa7514610298578063fb1ae6de146102ab57600080fd5b80634ba2363a1461020b578063626cb3c51461021e5780636cebad981461023157806384718d8914610239578063c11645bc1461024c57600080fd5b80633564ed2d116100f45780633564ed2d146101ac57806336569e77146101bf5780633cdc5389146101d25780633fc8cef3146101e557806342578873146101f857600080fd5b80631105b8e914610131578063162c6778146101605780632021743a14610173578063248c65e4146101865780632e77468d14610199575b600080fd5b600a54610144906001600160a01b031681565b6040516001600160a01b03909116815260200160405180910390f35b600e54610144906001600160a01b031681565b600b54610144906001600160a01b031681565b610197610194366004610bf5565b50565b005b600854610144906001600160a01b031681565b600c54610144906001600160a01b031681565b600154610144906001600160a01b031681565b600d54610144906001600160a01b031681565b600954610144906001600160a01b031681565b600f54610144906001600160a01b031681565b600654610144906001600160a01b031681565b600454610144906001600160a01b031681565b6101446102be565b600754610144906001600160a01b031681565b600254610144906001600160a01b031681565b600554610144906001600160a01b031681565b600054610144906001600160a01b031681565b601054610144906001600160a01b031681565b600354610144906001600160a01b031681565b6101976102b9366004610bf5565b6102ff565b6000306040516102cd90610bd3565b6001600160a01b039091168152602001604051809103906000f0801580156102f9573d6000803e3d6000fd5b50905090565b600080546001600160a01b0319166001600160a01b0383169081179091556040516321f8a72160e01b8152661350d117d5905560ca1b60048201526321f8a72190602401602060405180830381865afa158015610360573d6000803e3d6000fd5b505050506040513d601f19601f820116820180604052508101906103849190610c19565b600180546001600160a01b0319166001600160a01b039283161790556000546040516321f8a72160e01b81526b4d43445f4a4f494e5f44414960a01b60048201529116906321f8a72190602401602060405180830381865afa1580156103ee573d6000803e3d6000fd5b505050506040513d601f19601f820116820180604052508101906104129190610c19565b600280546001600160a01b0319166001600160a01b039283161790556000546040516321f8a72160e01b8152664d43445f44414960c81b60048201529116906321f8a72190602401602060405180830381865afa158015610477573d6000803e3d6000fd5b505050506040513d601f19601f8201168201806040525081019061049b9190610c19565b600380546001600160a01b0319166001600160a01b039283161790556000546040516321f8a72160e01b8152664d43445f564f5760c81b60048201529116906321f8a72190602401602060405180830381865afa158015610500573d6000803e3d6000fd5b505050506040513d601f19601f820116820180604052508101906105249190610c19565b600480546001600160a01b039283166001600160a01b03199091161781556000546040516321f8a72160e01b81529216916321f8a721916105739101664d43445f444f4760c81b815260200190565b602060405180830381865afa158015610590573d6000803e3d6000fd5b505050506040513d601f19601f820116820180604052508101906105b49190610c19565b600580546001600160a01b0319166001600160a01b039283161790556000546040516321f8a72160e01b8152661350d117d413d560ca1b60048201529116906321f8a72190602401602060405180830381865afa158015610619573d6000803e3d6000fd5b505050506040513d601f19601f8201168201806040525081019061063d9190610c19565b600680546001600160a01b0319166001600160a01b039283161790556000546040516321f8a72160e01b8152664d43445f4a554760c81b60048201529116906321f8a72190602401602060405180830381865afa1580156106a2573d6000803e3d6000fd5b505050506040513d601f19601f820116820180604052508101906106c69190610c19565b600780546001600160a01b0319166001600160a01b039283161790556000546040516321f8a72160e01b8152671350d117d4d413d560c21b60048201529116906321f8a72190602401602060405180830381865afa15801561072c573d6000803e3d6000fd5b505050506040513d601f19601f820116820180604052508101906107509190610c19565b600880546001600160a01b0319166001600160a01b039283161790556000546040516321f8a72160e01b81526208aa8960eb1b60048201529116906321f8a72190602401602060405180830381865afa1580156107b1573d6000803e3d6000fd5b505050506040513d601f19601f820116820180604052508101906107d59190610c19565b600980546001600160a01b0319166001600160a01b039283161790556000546040516321f8a72160e01b8152660a092a0be8aa8960cb1b60048201529116906321f8a72190602401602060405180830381865afa15801561083a573d6000803e3d6000fd5b505050506040513d601f19601f8201168201806040525081019061085e9190610c19565b600a80546001600160a01b0319166001600160a01b039283161790556000546040516321f8a72160e01b81526d4d43445f4a4f494e5f4554485f4160901b60048201529116906321f8a72190602401602060405180830381865afa1580156108ca573d6000803e3d6000fd5b505050506040513d601f19601f820116820180604052508101906108ee9190610c19565b600b80546001600160a01b0319166001600160a01b039283161790556000546040516321f8a72160e01b81526d4d43445f434c49505f4554485f4160901b60048201529116906321f8a72190602401602060405180830381865afa15801561095a573d6000803e3d6000fd5b505050506040513d601f19601f8201168201806040525081019061097e9190610c19565b600c80546001600160a01b0319166001600160a01b039283161790556000546040516321f8a72160e01b8152635742544360e01b60048201529116906321f8a72190602401602060405180830381865afa1580156109e0573d6000803e3d6000fd5b505050506040513d601f19601f82011682018060405250810190610a049190610c19565b600d80546001600160a01b0319166001600160a01b039283161790556000546040516321f8a72160e01b8152675049505f5742544360c01b60048201529116906321f8a72190602401602060405180830381865afa158015610a6a573d6000803e3d6000fd5b505050506040513d601f19601f82011682018060405250810190610a8e9190610c19565b600e80546001600160a01b0319166001600160a01b039283161790556000546040516321f8a72160e01b81526e4d43445f4a4f494e5f574254435f4160881b60048201529116906321f8a72190602401602060405180830381865afa158015610afb573d6000803e3d6000fd5b505050506040513d601f19601f82011682018060405250810190610b1f9190610c19565b600f80546001600160a01b0319166001600160a01b039283161790556000546040516321f8a72160e01b81526e4d43445f434c49505f574254435f4160881b60048201529116906321f8a72190602401602060405180830381865afa158015610b8c573d6000803e3d6000fd5b505050506040513d601f19601f82011682018060405250810190610bb09190610c19565b601080546001600160a01b0319166001600160a01b039290921691909117905550565b61149280610c3783390190565b6001600160a01b038116811461019457600080fd5b600060208284031215610c0757600080fd5b8135610c1281610be0565b9392505050565b600060208284031215610c2b57600080fd5b8151610c1281610be056fe608060405234801561001057600080fd5b5060405161149238038061149283398101604081905261002f91610054565b600080546001600160a01b0319166001600160a01b0392909216919091179055610084565b60006020828403121561006657600080fd5b81516001600160a01b038116811461007d57600080fd5b9392505050565b6113ff806100936000396000f3fe608060405234801561001057600080fd5b506004361061002b5760003560e01c8063f7e8829814610030575b600080fd5b61004361003e366004611133565b610045565b005b6000826001600160a01b0316637bd2bea76040518163ffffffff1660e01b8152600401602060405180830381865afa158015610085573d6000803e3d6000fd5b505050506040513d601f19601f820116820180604052508101906100a9919061115f565b90506000836001600160a01b031663c5ce281e6040518163ffffffff1660e01b8152600401602060405180830381865afa1580156100eb573d6000803e3d6000fd5b505050506040513d601f19601f8201168201806040525081019061010f9190611183565b6040516370a0823160e01b81523060048201529091506000906001600160a01b038416906370a0823190602401602060405180830381865afa158015610159573d6000803e3d6000fd5b505050506040513d601f19601f8201168201806040525081019061017d9190611183565b90506101936001600160a01b0384163086610a73565b604051636eb1769f60e11b81523060048201526001600160a01b0386811660248301526000919085169063dd62ed3e90604401602060405180830381865afa1580156101e3573d6000803e3d6000fd5b505050506040513d601f19601f820116820180604052508101906102079190611183565b60405163095ea7b360e01b81529091506001600160a01b0385169063095ea7b390610238908990899060040161119c565b6020604051808303816000875af1158015610257573d6000803e3d6000fd5b505050506040513d601f19601f8201168201806040525081019061027b91906111b5565b50604051633b4da69f60e01b81526001600160a01b03871690633b4da69f906102aa903090899060040161119c565b600060405180830381600087803b1580156102c457600080fd5b505af11580156102d8573d6000803e3d6000fd5b506102f1925050506001600160a01b0385163084610a73565b60405163095ea7b360e01b81526001600160a01b0385169063095ea7b39061031f908990859060040161119c565b6020604051808303816000875af115801561033e573d6000803e3d6000fd5b505050506040513d601f19601f8201168201806040525081019061036291906111b5565b5060008054604080516336569e7760e01b8152905183926001600160a01b0316916336569e779160048083019260209291908290030181865afa1580156103ad573d6000803e3d6000fd5b505050506040513d601f19601f820116820180604052508101906103d1919061115f565b6001600160a01b031663d9638d36866040518263ffffffff1660e01b81526004016103fe91815260200190565b60a060405180830381865afa15801561041b573d6000803e3d6000fd5b505050506040513d601f19601f8201168201806040525081019061043f91906111d7565b505092509250506000828883610455919061122d565b61045f919061124c565b90506000876001600160a01b031663313ce5676040518163ffffffff1660e01b8152600401602060405180830381865afa1580156104a1573d6000803e3d6000fd5b505050506040513d601f19601f820116820180604052508101906104c59190611183565b6104d090601261126e565b6104db90600a61136b565b6104e5908a61122d565b905060008054906101000a90046001600160a01b03166001600160a01b03166336569e776040518163ffffffff1660e01b8152600401602060405180830381865afa158015610538573d6000803e3d6000fd5b505050506040513d601f19601f8201168201806040525081019061055c919061115f565b604051637608870360e01b81526004810189905230602482018190526044820181905260648201526084810183905260a481018490526001600160a01b03919091169063760887039060c401600060405180830381600087803b1580156105c257600080fd5b505af11580156105d6573d6000803e3d6000fd5b5050505060008060009054906101000a90046001600160a01b03166001600160a01b03166336569e776040518163ffffffff1660e01b8152600401602060405180830381865afa15801561062e573d6000803e3d6000fd5b505050506040513d601f19601f82011682018060405250810190610652919061115f565b60405163bf353dbb60e01b81523060048201526001600160a01b03919091169063bf353dbb90602401602060405180830381865afa158015610698573d6000803e3d6000fd5b505050506040513d601f19601f820116820180604052508101906106bc9190611183565b905061074930600160008054906101000a90046001600160a01b03166001600160a01b03166336569e776040518163ffffffff1660e01b8152600401602060405180830381865afa158015610715573d6000803e3d6000fd5b505050506040513d601f19601f82011682018060405250810190610739919061115f565b6001600160a01b03169190610a83565b60008054906101000a90046001600160a01b03166001600160a01b03166336569e776040518163ffffffff1660e01b8152600401602060405180830381865afa15801561079a573d6000803e3d6000fd5b505050506040513d601f19601f820116820180604052508101906107be919061115f565b6001600160a01b0316631a0b287e896107d860028861124c565b6040516001600160e01b031960e085901b1681526004810192909252631cdc1bdd60e21b60248301526044820152606401600060405180830381600087803b15801561082357600080fd5b505af1158015610837573d6000803e3d6000fd5b5050505060008054906101000a90046001600160a01b03166001600160a01b031663c3b3ad7f6040518163ffffffff1660e01b8152600401602060405180830381865afa15801561088c573d6000803e3d6000fd5b505050506040513d601f19601f820116820180604052508101906108b0919061115f565b604051631db3312160e31b8152600481018a9052306024820181905260448201526001600160a01b03919091169063ed998908906064016020604051808303816000875af1158015610906573d6000803e3d6000fd5b505050506040513d601f19601f8201168201806040525081019061092a9190611183565b5060008054906101000a90046001600160a01b03166001600160a01b03166336569e776040518163ffffffff1660e01b8152600401602060405180830381865afa15801561097c573d6000803e3d6000fd5b505050506040513d601f19601f820116820180604052508101906109a0919061115f565b604051630d05943f60e11b8152600481018a9052631cdc1bdd60e21b6024820152604481018690526001600160a01b039190911690631a0b287e90606401600060405180830381600087803b1580156109f857600080fd5b505af1158015610a0c573d6000803e3d6000fd5b50505050610a66308260008054906101000a90046001600160a01b03166001600160a01b03166336569e776040518163ffffffff1660e01b8152600401602060405180830381865afa158015610715573d6000803e3d6000fd5b5050505050505050505050565b610a7e838383610a8e565b505050565b610a7e838383610dd3565b6040516370a0823160e01b81526001600160a01b0383811660048301528291908516906370a0823190602401602060405180830381865afa158015610ad7573d6000803e3d6000fd5b505050506040513d601f19601f82011682018060405250810190610afb9190611183565b03610b0557505050565b60005b60c8811015610d8d576000737109709ecfa91a80626ff3989d68f67f5b1dd12d6001600160a01b031663667f9d70868685604051602001610b4a92919061119c565b604051602081830303815290604052805190602001206040518363ffffffff1660e01b8152600401610b7d92919061119c565b6020604051808303816000875af1158015610b9c573d6000803e3d6000fd5b505050506040513d601f19601f82011682018060405250810190610bc09190611183565b9050737109709ecfa91a80626ff3989d68f67f5b1dd12d6001600160a01b03166370ca10bb868685604051602001610bf992919061119c565b60408051601f198184030181529082905280516020909101206001600160e01b031960e085901b168252610c3292918890600401611377565b600060405180830381600087803b158015610c4c57600080fd5b505af1158015610c60573d6000803e3d6000fd5b50506040516370a0823160e01b81526001600160a01b038781166004830152869350881691506370a0823190602401602060405180830381865afa158015610cac573d6000803e3d6000fd5b505050506040513d601f19601f82011682018060405250810190610cd09190611183565b03610cdc575050505050565b737109709ecfa91a80626ff3989d68f67f5b1dd12d6001600160a01b03166370ca10bb868685604051602001610d1392919061119c565b60405160208183030381529060405280519060200120846040518463ffffffff1660e01b8152600401610d4893929190611377565b600060405180830381600087803b158015610d6257600080fd5b505af1158015610d76573d6000803e3d6000fd5b505050505080610d8581611398565b915050610b08565b5060405162461bcd60e51b8152602060048201526015602482015274436f756c64206e6f74206769766520746f6b656e7360581b60448201526064015b60405180910390fd5b60405163bf353dbb60e01b81526001600160a01b03838116600483015282919085169063bf353dbb90602401602060405180830381865afa158015610e1c573d6000803e3d6000fd5b505050506040513d601f19601f82011682018060405250810190610e409190611183565b03610e4a57505050565b60005b60648112156110d2576000737109709ecfa91a80626ff3989d68f67f5b1dd12d6001600160a01b031663667f9d70868685604051602001610e8f92919061119c565b604051602081830303815290604052805190602001206040518363ffffffff1660e01b8152600401610ec292919061119c565b6020604051808303816000875af1158015610ee1573d6000803e3d6000fd5b505050506040513d601f19601f82011682018060405250810190610f059190611183565b9050737109709ecfa91a80626ff3989d68f67f5b1dd12d6001600160a01b03166370ca10bb868685604051602001610f3e92919061119c565b60408051601f198184030181529082905280516020909101206001600160e01b031960e085901b168252610f7792918890600401611377565b600060405180830381600087803b158015610f9157600080fd5b505af1158015610fa5573d6000803e3d6000fd5b505060405163bf353dbb60e01b81526001600160a01b0387811660048301528693508816915063bf353dbb90602401602060405180830381865afa158015610ff1573d6000803e3d6000fd5b505050506040513d601f19601f820116820180604052508101906110159190611183565b03611021575050505050565b737109709ecfa91a80626ff3989d68f67f5b1dd12d6001600160a01b03166370ca10bb86868560405160200161105892919061119c565b60405160208183030381529060405280519060200120846040518463ffffffff1660e01b815260040161108d93929190611377565b600060405180830381600087803b1580156110a757600080fd5b505af11580156110bb573d6000803e3d6000fd5b5050505050806110ca816113b1565b915050610e4d565b5060405162461bcd60e51b815260206004820152601a60248201527f436f756c64206e6f7420676976652061757468206163636573730000000000006044820152606401610dca565b6001600160a01b038116811461113057600080fd5b50565b6000806040838503121561114657600080fd5b82356111518161111b565b946020939093013593505050565b60006020828403121561117157600080fd5b815161117c8161111b565b9392505050565b60006020828403121561119557600080fd5b5051919050565b6001600160a01b03929092168252602082015260400190565b6000602082840312156111c757600080fd5b8151801515811461117c57600080fd5b600080600080600060a086880312156111ef57600080fd5b5050835160208501516040860151606087015160809097015192989197509594509092509050565b634e487b7160e01b600052601160045260246000fd5b600081600019048311821515161561124757611247611217565b500290565b60008261126957634e487b7160e01b600052601260045260246000fd5b500490565b60008282101561128057611280611217565b500390565b600181815b808511156112c05781600019048211156112a6576112a6611217565b808516156112b357918102915b93841c939080029061128a565b509250929050565b6000826112d757506001611365565b816112e457506000611365565b81600181146112fa576002811461130457611320565b6001915050611365565b60ff84111561131557611315611217565b50506001821b611365565b5060208310610133831016604e8410600b8410161715611343575081810a611365565b61134d8383611285565b806000190482111561136157611361611217565b0290505b92915050565b600061117c83836112c8565b6001600160a01b039390931683526020830191909152604082015260600190565b6000600182016113aa576113aa611217565b5060010190565b60006001600160ff1b0182016113aa576113aa61121756fea2646970667358221220a5eb444d4444ac62f84d4d226f4519e48a0db4a007aa4d2624cc9e35838cfe2264736f6c634300080d0033a2646970667358221220dd66485d2518824b39cf9484a3ba9beee6e3303955245911d59433a8dfef34f364736f6c634300080d0033",
    "linkReferences": {}
  }
}