{
  "_format": "hh-sol-artifact-1",
  "contractName": "L1GatewayRouter",
  "sourceName": "contracts/tokenbridge/ethereum/gateway/L1GatewayRouter.sol",
  "abi": [
    {
      "anonymous": false,
      "inputs": [
        {
          "indexed": false,
          "internalType": "address",
          "name": "newDefaultGateway",
          "type": "address"
        }
      ],
      "name": "DefaultGatewayUpdated",
      "type": "event"
    },
    {
      "anonymous": false,
      "inputs": [
        {
          "indexed": true,
          "internalType": "address",
          "name": "l1Token",
          "type": "address"
        },
        {
          "indexed": true,
          "internalType": "address",
          "name": "gateway",
          "type": "address"
        }
      ],
      "name": "GatewaySet",
      "type": "event"
    },
    {
      "anonymous": false,
      "inputs": [
        {
          "indexed": false,
          "internalType": "address",
          "name": "token",
          "type": "address"
        },
        {
          "indexed": true,
          "internalType": "address",
          "name": "_from",
          "type": "address"
        },
        {
          "indexed": true,
          "internalType": "address",
          "name": "_to",
          "type": "address"
        },
        {
          "indexed": true,
          "internalType": "uint256",
          "name": "_transferId",
          "type": "uint256"
        },
        {
          "indexed": false,
          "internalType": "uint256",
          "name": "_amount",
          "type": "uint256"
        },
        {
          "indexed": false,
          "internalType": "bytes",
          "name": "_data",
          "type": "bytes"
        }
      ],
      "name": "InboundTransferFinalized",
      "type": "event"
    },
    {
      "anonymous": false,
      "inputs": [
        {
          "indexed": false,
          "internalType": "address",
          "name": "token",
          "type": "address"
        },
        {
          "indexed": true,
          "internalType": "address",
          "name": "_from",
          "type": "address"
        },
        {
          "indexed": true,
          "internalType": "address",
          "name": "_to",
          "type": "address"
        },
        {
          "indexed": true,
          "internalType": "uint256",
          "name": "_transferId",
          "type": "uint256"
        },
        {
          "indexed": false,
          "internalType": "uint256",
          "name": "_amount",
          "type": "uint256"
        },
        {
          "indexed": false,
          "internalType": "bytes",
          "name": "_data",
          "type": "bytes"
        }
      ],
      "name": "OutboundTransferInitiated",
      "type": "event"
    },
    {
      "anonymous": false,
      "inputs": [
        {
          "indexed": true,
          "internalType": "address",
          "name": "token",
          "type": "address"
        },
        {
          "indexed": true,
          "internalType": "address",
          "name": "_userFrom",
          "type": "address"
        },
        {
          "indexed": true,
          "internalType": "address",
          "name": "_userTo",
          "type": "address"
        },
        {
          "indexed": false,
          "internalType": "address",
          "name": "gateway",
          "type": "address"
        }
      ],
      "name": "TransferRouted",
      "type": "event"
    },
    {
      "anonymous": false,
      "inputs": [
        {
          "indexed": true,
          "internalType": "address",
          "name": "_from",
          "type": "address"
        },
        {
          "indexed": true,
          "internalType": "address",
          "name": "_to",
          "type": "address"
        },
        {
          "indexed": true,
          "internalType": "uint256",
          "name": "_seqNum",
          "type": "uint256"
        },
        {
          "indexed": false,
          "internalType": "bytes",
          "name": "_data",
          "type": "bytes"
        }
      ],
      "name": "TxToL2",
      "type": "event"
    },
    {
      "anonymous": false,
      "inputs": [
        {
          "indexed": false,
          "internalType": "address",
          "name": "newSource",
          "type": "address"
        }
      ],
      "name": "WhitelistSourceUpdated",
      "type": "event"
    },
    {
      "inputs": [
        {
          "internalType": "address",
          "name": "l1ERC20",
          "type": "address"
        }
      ],
      "name": "calculateL2TokenAddress",
      "outputs": [
        {
          "internalType": "address",
          "name": "",
          "type": "address"
        }
      ],
      "stateMutability": "view",
      "type": "function"
    },
    {
      "inputs": [],
      "name": "counterpartGateway",
      "outputs": [
        {
          "internalType": "address",
          "name": "",
          "type": "address"
        }
      ],
      "stateMutability": "view",
      "type": "function"
    },
    {
      "inputs": [],
      "name": "defaultGateway",
      "outputs": [
        {
          "internalType": "address",
          "name": "",
          "type": "address"
        }
      ],
      "stateMutability": "view",
      "type": "function"
    },
    {
      "inputs": [
        {
          "internalType": "address",
          "name": "_token",
          "type": "address"
        },
        {
          "internalType": "address",
          "name": "_from",
          "type": "address"
        },
        {
          "internalType": "address",
          "name": "_to",
          "type": "address"
        },
        {
          "internalType": "uint256",
          "name": "_amount",
          "type": "uint256"
        },
        {
          "internalType": "bytes",
          "name": "_data",
          "type": "bytes"
        }
      ],
      "name": "finalizeInboundTransfer",
      "outputs": [
        {
          "internalType": "bytes",
          "name": "",
          "type": "bytes"
        }
      ],
      "stateMutability": "payable",
      "type": "function"
    },
    {
      "inputs": [
        {
          "internalType": "address",
          "name": "_token",
          "type": "address"
        }
      ],
      "name": "getGateway",
      "outputs": [
        {
          "internalType": "address",
          "name": "gateway",
          "type": "address"
        }
      ],
      "stateMutability": "view",
      "type": "function"
    },
    {
      "inputs": [
        {
          "internalType": "address",
          "name": "_token",
          "type": "address"
        },
        {
          "internalType": "address",
          "name": "_from",
          "type": "address"
        },
        {
          "internalType": "address",
          "name": "_to",
          "type": "address"
        },
        {
          "internalType": "uint256",
          "name": "_amount",
          "type": "uint256"
        },
        {
          "internalType": "bytes",
          "name": "_data",
          "type": "bytes"
        }
      ],
      "name": "getOutboundCalldata",
      "outputs": [
        {
          "internalType": "bytes",
          "name": "",
          "type": "bytes"
        }
      ],
      "stateMutability": "view",
      "type": "function"
    },
    {
      "inputs": [],
      "name": "inbox",
      "outputs": [
        {
          "internalType": "address",
          "name": "",
          "type": "address"
        }
      ],
      "stateMutability": "view",
      "type": "function"
    },
    {
      "inputs": [
        {
          "internalType": "address",
          "name": "_owner",
          "type": "address"
        },
        {
          "internalType": "address",
          "name": "_defaultGateway",
          "type": "address"
        },
        {
          "internalType": "address",
          "name": "_whitelist",
          "type": "address"
        },
        {
          "internalType": "address",
          "name": "_counterpartGateway",
          "type": "address"
        },
        {
          "internalType": "address",
          "name": "_inbox",
          "type": "address"
        }
      ],
      "name": "initialize",
      "outputs": [],
      "stateMutability": "nonpayable",
      "type": "function"
    },
    {
      "inputs": [],
      "name": "isRouter",
      "outputs": [
        {
          "internalType": "bool",
          "name": "",
          "type": "bool"
        }
      ],
      "stateMutability": "view",
      "type": "function"
    },
    {
      "inputs": [
        {
          "internalType": "address",
          "name": "",
          "type": "address"
        }
      ],
      "name": "l1TokenToGateway",
      "outputs": [
        {
          "internalType": "address",
          "name": "",
          "type": "address"
        }
      ],
      "stateMutability": "view",
      "type": "function"
    },
    {
      "inputs": [
        {
          "internalType": "address",
          "name": "_token",
          "type": "address"
        },
        {
          "internalType": "address",
          "name": "_to",
          "type": "address"
        },
        {
          "internalType": "uint256",
          "name": "_amount",
          "type": "uint256"
        },
        {
          "internalType": "uint256",
          "name": "_maxGas",
          "type": "uint256"
        },
        {
          "internalType": "uint256",
          "name": "_gasPriceBid",
          "type": "uint256"
        },
        {
          "internalType": "bytes",
          "name": "_data",
          "type": "bytes"
        }
      ],
      "name": "outboundTransfer",
      "outputs": [
        {
          "internalType": "bytes",
          "name": "",
          "type": "bytes"
        }
      ],
      "stateMutability": "payable",
      "type": "function"
    },
    {
      "inputs": [],
      "name": "owner",
      "outputs": [
        {
          "internalType": "address",
          "name": "",
          "type": "address"
        }
      ],
      "stateMutability": "view",
      "type": "function"
    },
    {
      "inputs": [],
      "name": "router",
      "outputs": [
        {
          "internalType": "address",
          "name": "",
          "type": "address"
        }
      ],
      "stateMutability": "view",
      "type": "function"
    },
    {
      "inputs": [
        {
          "internalType": "address",
          "name": "newL1DefaultGateway",
          "type": "address"
        },
        {
          "internalType": "uint256",
          "name": "_maxGas",
          "type": "uint256"
        },
        {
          "internalType": "uint256",
          "name": "_gasPriceBid",
          "type": "uint256"
        },
        {
          "internalType": "uint256",
          "name": "_maxSubmissionCost",
          "type": "uint256"
        }
      ],
      "name": "setDefaultGateway",
      "outputs": [
        {
          "internalType": "uint256",
          "name": "",
          "type": "uint256"
        }
      ],
      "stateMutability": "payable",
      "type": "function"
    },
    {
      "inputs": [
        {
          "internalType": "address",
          "name": "_gateway",
          "type": "address"
        },
        {
          "internalType": "uint256",
          "name": "_maxGas",
          "type": "uint256"
        },
        {
          "internalType": "uint256",
          "name": "_gasPriceBid",
          "type": "uint256"
        },
        {
          "internalType": "uint256",
          "name": "_maxSubmissionCost",
          "type": "uint256"
        }
      ],
      "name": "setGateway",
      "outputs": [
        {
          "internalType": "uint256",
          "name": "",
          "type": "uint256"
        }
      ],
      "stateMutability": "payable",
      "type": "function"
    },
    {
      "inputs": [
        {
          "internalType": "address[]",
          "name": "_token",
          "type": "address[]"
        },
        {
          "internalType": "address[]",
          "name": "_gateway",
          "type": "address[]"
        },
        {
          "internalType": "uint256",
          "name": "_maxGas",
          "type": "uint256"
        },
        {
          "internalType": "uint256",
          "name": "_gasPriceBid",
          "type": "uint256"
        },
        {
          "internalType": "uint256",
          "name": "_maxSubmissionCost",
          "type": "uint256"
        }
      ],
      "name": "setGateways",
      "outputs": [
        {
          "internalType": "uint256",
          "name": "",
          "type": "uint256"
        }
      ],
      "stateMutability": "payable",
      "type": "function"
    },
    {
      "inputs": [
        {
          "internalType": "address",
          "name": "newOwner",
          "type": "address"
        }
      ],
      "name": "setOwner",
      "outputs": [],
      "stateMutability": "nonpayable",
      "type": "function"
    },
    {
      "inputs": [
        {
          "internalType": "address",
          "name": "newSource",
          "type": "address"
        }
      ],
      "name": "updateWhitelistSource",
      "outputs": [],
      "stateMutability": "nonpayable",
      "type": "function"
    },
    {
      "inputs": [],
      "name": "whitelist",
      "outputs": [
        {
          "internalType": "address",
          "name": "",
          "type": "address"
        }
      ],
      "stateMutability": "view",
      "type": "function"
    }
  ],
  "bytecode": "0x608060405234801561001057600080fd5b50611f1d806100206000396000f3fe60806040526004361061011f5760003560e01c806393e59dc1116100a0578063d2ce7d6511610064578063d2ce7d651461066a578063dd61456914610704578063ed08fdc61461073c578063f887ea401461076f578063fb0e722b146107845761011f565b806393e59dc11461048c57806395fcea78146104a1578063a0c76a96146104b6578063a7e28d4814610604578063bda009fe146106375761011f565b80632e567b36116100e75780632e567b361461024857806347466f98146102de5780635625a95214610311578063658b53f4146103495780638da5cb5b146104775761011f565b8063032958021461012457806313af4035146101555780631459457a1461018a5780632d67b72d146101df5780632db09c1c14610233575b600080fd5b34801561013057600080fd5b50610139610799565b604080516001600160a01b039092168252519081900360200190f35b34801561016157600080fd5b506101886004803603602081101561017857600080fd5b50356001600160a01b03166107a8565b005b34801561019657600080fd5b50610188600480360360a08110156101ad57600080fd5b506001600160a01b03813581169160208101358216916040820135811691606081013582169160809091013516610861565b610221600480360360a08110156101f557600080fd5b506001600160a01b038135811691602081013591604082013591606081013591608090910135166108af565b60408051918252519081900360200190f35b34801561023f57600080fd5b50610139610b0c565b610188600480360360a081101561025e57600080fd5b6001600160a01b03823581169260208101358216926040820135909216916060820135919081019060a081016080820135600160201b8111156102a057600080fd5b8201836020820111156102b257600080fd5b803590602001918460018302840111600160201b831117156102d357600080fd5b509092509050610b1b565b3480156102ea57600080fd5b506101886004803603602081101561030157600080fd5b50356001600160a01b0316610b5f565b6102216004803603608081101561032757600080fd5b506001600160a01b038135169060208101359060408101359060600135610c02565b610221600480360360a081101561035f57600080fd5b810190602081018135600160201b81111561037957600080fd5b82018360208201111561038b57600080fd5b803590602001918460208302840111600160201b831117156103ac57600080fd5b9190808060200260200160405190810160405280939291908181526020018383602002808284376000920191909152509295949360208101935035915050600160201b8111156103fb57600080fd5b82018360208201111561040d57600080fd5b803590602001918460208302840111600160201b8311171561042e57600080fd5b9190808060200260200160405190810160405280939291908181526020018383602002808284376000920191909152509295505082359350505060208101359060400135610d9f565b34801561048357600080fd5b50610139610e06565b34801561049857600080fd5b50610139610e15565b3480156104ad57600080fd5b50610188610e24565b3480156104c257600080fd5b5061058f600480360360a08110156104d957600080fd5b6001600160a01b03823581169260208101358216926040820135909216916060820135919081019060a081016080820135600160201b81111561051b57600080fd5b82018360208201111561052d57600080fd5b803590602001918460018302840111600160201b8311171561054e57600080fd5b91908080601f016020809104026020016040519081016040528093929190818152602001838380828437600092019190915250929550610e81945050505050565b6040805160208082528351818301528351919283929083019185019080838360005b838110156105c95781810151838201526020016105b1565b50505050905090810190601f1680156105f65780820380516001836020036101000a031916815260200191505b509250505060405180910390f35b34801561061057600080fd5b506101396004803603602081101561062757600080fd5b50356001600160a01b0316611083565b34801561064357600080fd5b506101396004803603602081101561065a57600080fd5b50356001600160a01b0316611134565b61058f600480360360c081101561068057600080fd5b6001600160a01b0382358116926020810135909116916040820135916060810135916080820135919081019060c0810160a0820135600160201b8111156106c657600080fd5b8201836020820111156106d857600080fd5b803590602001918460018302840111600160201b831117156106f957600080fd5b509092509050611196565b6102216004803603608081101561071a57600080fd5b506001600160a01b0381351690602081013590604081013590606001356113ba565b34801561074857600080fd5b506101396004803603602081101561075f57600080fd5b50356001600160a01b03166113d2565b34801561077b57600080fd5b506101396113ed565b34801561079057600080fd5b506101396113fc565b6004546001600160a01b031681565b6005546001600160a01b031633146107f4576040805162461bcd60e51b815260206004820152600a60248201526927a7262cafa7aba722a960b11b604482015290519081900360640190fd5b6001600160a01b03811661083f576040805162461bcd60e51b815260206004820152600d60248201526c24a72b20a624a22fa7aba722a960991b604482015290519081900360640190fd5b600580546001600160a01b0319166001600160a01b0392909216919091179055565b61086d8260008661140b565b600580546001600160a01b03199081166001600160a01b0397881617909155600080548216948716949094179093556006805490931694169390931790555050565b600061a4b160ff16336001600160a01b0316638e5f5ad16040518163ffffffff1660e01b815260040160206040518083038186803b1580156108f057600080fd5b505afa158015610904573d6000803e3d6000fd5b505050506040513d602081101561091a57600080fd5b505160ff1614610963576040805162461bcd60e51b815260206004820152600f60248201526e1393d517d0549097d1539050931151608a1b604482015290519081900360640190fd5b610975866001600160a01b0316611482565b6109b8576040805162461bcd60e51b815260206004820152600f60248201526e1393d517d513d7d0d3d395149050d5608a1b604482015290519081900360640190fd5b60006109c333611134565b90506001600160a01b038116158015906109eb57506004546001600160a01b03828116911614155b15610a5657866001600160a01b0316816001600160a01b031614610a56576040805162461bcd60e51b815260206004820152601b60248201527f4e4f5f5550444154455f544f5f444946464552454e545f414444520000000000604482015290519081900360640190fd5b604080516001808252818301909252606091602080830190803683370190505090503381600081518110610a8657fe5b6001600160a01b0392909216602092830291909101909101526040805160018082528183019092526060918160200160208202803683370190505090508881600081518110610ad157fe5b60200260200101906001600160a01b031690816001600160a01b031681525050610aff82828a8a8a8a611488565b9998505050505050505050565b6001546001600160a01b031681565b6040805162461bcd60e51b815260206004820152601460248201527327a7262cafa7aaaa2127aaa7222fa927aaaa22a960611b604482015290519081900360640190fd5b6000546001600160a01b03163314610bae576040805162461bcd60e51b815260206004820152600d60248201526c1393d517d19493d357d31254d5609a1b604482015290519081900360640190fd5b600080546001600160a01b0383166001600160a01b0319909116811790915560408051918252517f37389c47920d5cc3229678a0205d0455002c07541a4139ebdce91ac2274657779181900360200190a150565b6005546000906001600160a01b03163314610c51576040805162461bcd60e51b815260206004820152600a60248201526927a7262cafa7aba722a960b11b604482015290519081900360640190fd5b600480546001600160a01b0387166001600160a01b0319909116811790915560408051918252517f3a8f8eb961383a94d41d193e16a3af73eaddfd5764a4c640257323a1603ac3319181900360200190a160006001600160a01b03861615610d1b57856001600160a01b0316632db09c1c6040518163ffffffff1660e01b815260040160206040518083038186803b158015610cec57600080fd5b505afa158015610d00573d6000803e3d6000fd5b505050506040513d6020811015610d1657600080fd5b505190505b604080516001600160a01b038084166024808401919091528351808403909101815260449092018352602082810180516001600160e01b031663f7c9362f60e01b17905260065460015485516060810187528981529283018b90529482018990529293610d949383169216903390349060009087611905565b979650505050505050565b6005546000906001600160a01b03163314610dee576040805162461bcd60e51b815260206004820152600a60248201526927a7262cafa7aba722a960b11b604482015290519081900360640190fd5b610dfc868686868633611488565b9695505050505050565b6005546001600160a01b031681565b6000546001600160a01b031681565b6000610e2e611924565b9050336001600160a01b03821614610e7e576040805162461bcd60e51b815260206004820152600e60248201526d2727aa2fa32927a6afa0a226a4a760911b604482015290519081900360640190fd5b50565b60606000610e8e87611134565b9050806001600160a01b031663a0c76a9688888888886040518663ffffffff1660e01b815260040180866001600160a01b03166001600160a01b03168152602001856001600160a01b03166001600160a01b03168152602001846001600160a01b03166001600160a01b0316815260200183815260200180602001828103825283818151815260200191508051906020019080838360005b83811015610f3e578181015183820152602001610f26565b50505050905090810190601f168015610f6b5780820380516001836020036101000a031916815260200191505b50965050505050505060006040518083038186803b158015610f8c57600080fd5b505afa158015610fa0573d6000803e3d6000fd5b505050506040513d6000823e601f3d908101601f191682016040526020811015610fc957600080fd5b8101908080516040519392919084600160201b821115610fe857600080fd5b908301906020820185811115610ffd57600080fd5b8251600160201b81118282018810171561101657600080fd5b82525081516020918201929091019080838360005b8381101561104357818101518382015260200161102b565b50505050905090810190601f1680156110705780820380516001836020036101000a031916815260200191505b5060405250505091505095945050505050565b60008061108f83611134565b90506001600160a01b0381166110a957600091505061112f565b806001600160a01b031663a7e28d48846040518263ffffffff1660e01b815260040180826001600160a01b03166001600160a01b0316815260200191505060206040518083038186803b1580156110ff57600080fd5b505afa158015611113573d6000803e3d6000fd5b505050506040513d602081101561112957600080fd5b50519150505b919050565b6001600160a01b03808216600090815260036020526040902054168061116257506004546001600160a01b03165b6001600160a01b038116600114806111895750611187816001600160a01b0316611482565b155b1561112f5750600061112f565b6000546060906001600160a01b031615611264576000546040805163babcc53960e01b815233600482015290516001600160a01b039092169163babcc53991602480820192602092909190829003018186803b1580156111f557600080fd5b505afa158015611209573d6000803e3d6000fd5b505050506040513d602081101561121f57600080fd5b5051611264576040805162461bcd60e51b815260206004820152600f60248201526e1393d517d5d2125511531254d51151608a1b604482015290519081900360640190fd5b60008383604081101561127657600080fd5b81359190810190604081016020820135600160201b81111561129757600080fd5b8201836020820111156112a957600080fd5b803590602001918460018302840111600160201b831117156112ca57600080fd5b91908080601f0160208091040260200160405190810160405280939291908181526020018383808284376000920191909152509697505050508989028501935050508215159050611357576040805162461bcd60e51b81526020600482015260126024820152711393d7d4d550935254d4d253d397d0d3d4d560721b604482015290519081900360640190fd5b80341461139d576040805162461bcd60e51b815260206004820152600f60248201526e57524f4e475f4554485f56414c554560881b604482015290519081900360640190fd5b6113ac8a8a8a8a8a8a8a611949565b9a9950505050505050505050565b60006113c985858585336108af565b95945050505050565b6003602052600090815260409020546001600160a01b031681565b6002546001600160a01b031681565b6006546001600160a01b031681565b6001600160a01b03821615611454576040805162461bcd60e51b815260206004820152600a6024820152692120a22fa927aaaa22a960b11b604482015290519081900360640190fd5b61145e8383611b9e565b600480546001600160a01b0319166001600160a01b03929092169190911790555050565b3b151590565b600085518751146114cf576040805162461bcd60e51b815260206004820152600c60248201526b0aea49e9c8ebe988a9c8ea8960a31b604482015290519081900360640190fd5b60005b87518110156117d0578681815181106114e757fe5b6020026020010151600360008a84815181106114ff57fe5b60200260200101516001600160a01b03166001600160a01b0316815260200190815260200160002060006101000a8154816001600160a01b0302191690836001600160a01b0316021790555086818151811061155757fe5b60200260200101516001600160a01b031688828151811061157457fe5b60200260200101516001600160a01b03167f812ca95fe4492a9e2d1f2723c2c40c03a60a27b059581ae20ac4e4d73bfba35460405160405180910390a360006001600160a01b03168782815181106115c857fe5b60200260200101516001600160a01b03161415801561160d575060016001600160a01b03168782815181106115f957fe5b60200260200101516001600160a01b031614155b156117c85760006001600160a01b031687828151811061162957fe5b60200260200101516001600160a01b031663a7e28d488a848151811061164b57fe5b60200260200101516040518263ffffffff1660e01b815260040180826001600160a01b03166001600160a01b0316815260200191505060206040518083038186803b15801561169957600080fd5b505afa1580156116ad573d6000803e3d6000fd5b505050506040513d60208110156116c357600080fd5b50516001600160a01b03161415611721576040805162461bcd60e51b815260206004820152601c60248201527f544f4b454e5f4e4f545f48414e444c45445f42595f4741544557415900000000604482015290519081900360640190fd5b86818151811061172d57fe5b60200260200101516001600160a01b0316632db09c1c6040518163ffffffff1660e01b815260040160206040518083038186803b15801561176d57600080fd5b505afa158015611781573d6000803e3d6000fd5b505050506040513d602081101561179757600080fd5b505187518890839081106117a757fe5b60200260200101906001600160a01b031690816001600160a01b0316815250505b6001016114d2565b506060634201f98560e01b8888604051602401808060200180602001838103835285818151815260200191508051906020019060200280838360005b8381101561182457818101518382015260200161180c565b50505050905001838103825284818151815260200191508051906020019060200280838360005b8381101561186357818101518382015260200161184b565b50505050905001945050505050604051602081830303815290604052906001600160e01b0319166020820180516001600160e01b03838183161783525050505090506118f9600660009054906101000a90046001600160a01b0316600160009054906101000a90046001600160a01b03168534600060405180606001604052808b81526020018d81526020018c81525087611905565b98975050505050505050565b60006118f98888888888886000015189602001518a604001518a611c6a565b7fb53127684a568b3173ae13b9f8a6016e243e63b6e8ee1178d6a717850b5d61035490565b6060600061195689611134565b90506060611965338686611e7d565b604080516001600160a01b0385811682529151929350818c169233928e16917f85291dff2161a93c2f12c819d31889c96c63042116f5bc5a205aa701c2c429f5919081900360200190a4816001600160a01b031663d2ce7d65348c8c8c8c8c886040518863ffffffff1660e01b815260040180876001600160a01b03166001600160a01b03168152602001866001600160a01b03166001600160a01b0316815260200185815260200184815260200183815260200180602001828103825283818151815260200191508051906020019080838360005b83811015611a53578181015183820152602001611a3b565b50505050905090810190601f168015611a805780820380516001836020036101000a031916815260200191505b509750505050505050506000604051808303818588803b158015611aa357600080fd5b505af1158015611ab7573d6000803e3d6000fd5b50505050506040513d6000823e601f3d908101601f191682016040526020811015611ae157600080fd5b8101908080516040519392919084600160201b821115611b0057600080fd5b908301906020820185811115611b1557600080fd5b8251600160201b811182820188101715611b2e57600080fd5b82525081516020918201929091019080838360005b83811015611b5b578181015183820152602001611b43565b50505050905090810190601f168015611b885780820380516001836020036101000a031916815260200191505b5060405250505092505050979650505050505050565b6001600160a01b038216611bef576040805162461bcd60e51b81526020600482015260136024820152721253959053125117d0d3d55395115494105495606a1b604482015290519081900360640190fd5b6001546001600160a01b031615611c3c576040805162461bcd60e51b815260206004820152600c60248201526b1053149150511657d253925560a21b604482015290519081900360640190fd5b600180546001600160a01b039384166001600160a01b03199182161790915560028054929093169116179055565b6000808a6001600160a01b031663679b6ded898c8a8a8e8f8c8c8c6040518a63ffffffff1660e01b815260040180896001600160a01b03166001600160a01b03168152602001888152602001878152602001866001600160a01b03166001600160a01b03168152602001856001600160a01b03166001600160a01b0316815260200184815260200183815260200180602001828103825283818151815260200191508051906020019080838360005b83811015611d31578181015183820152602001611d19565b50505050905090810190601f168015611d5e5780820380516001836020036101000a031916815260200191505b5099505050505050505050506020604051808303818588803b158015611d8357600080fd5b505af1158015611d97573d6000803e3d6000fd5b50505050506040513d6020811015611dae57600080fd5b81019080805190602001909291905050509050808a6001600160a01b03168a6001600160a01b03167fc1d1490cf25c3b40d600dfb27c7680340ed1ab901b7e8f3551280968a3b372b0866040518080602001828103825283818151815260200191508051906020019080838360005b83811015611e35578181015183820152602001611e1d565b50505050905090810190601f168015611e625780820380516001836020036101000a031916815260200191505b509250505060405180910390a49a9950505050505050505050565b606083838360405160200180846001600160a01b03166001600160a01b0316815260200180602001828103825284848281815260200192508082843760008184015260408051601f19601f909301831690940184810390920184525250999850505050505050505056fea2646970667358221220209a87e0b2b16371b8726764d296199cdef67a4e7dbc1a7892b6be8216dc205164736f6c634300060b0033",
  "deployedBytecode": "0x6080604052600436106101045760003560e01c80638da5cb5b116100a0578063d2ce7d6511610064578063d2ce7d6514610621578063dd614569146106bb578063ed08fdc6146106f3578063f887ea4014610726578063fb0e722b1461073b57610104565b80638da5cb5b146104b857806393e59dc1146104cd578063a0c76a96146104e2578063a7e28d48146105bb578063bda009fe146105ee57610104565b8063032958021461010957806313af40351461013a5780631459457a1461016f5780632db09c1c146101c45780632e567b36146101d957806347466f98146102e45780635625a9521461031757806363851c3114610361578063658b53f41461038a575b600080fd5b34801561011557600080fd5b5061011e610750565b604080516001600160a01b039092168252519081900360200190f35b34801561014657600080fd5b5061016d6004803603602081101561015d57600080fd5b50356001600160a01b031661075f565b005b34801561017b57600080fd5b5061016d600480360360a081101561019257600080fd5b506001600160a01b03813581169160208101358216916040820135811691606081013582169160809091013516610818565b3480156101d057600080fd5b5061011e610864565b61026f600480360360a08110156101ef57600080fd5b6001600160a01b03823581169260208101358216926040820135909216916060820135919081019060a081016080820135600160201b81111561023157600080fd5b82018360208201111561024357600080fd5b803590602001918460018302840111600160201b8311171561026457600080fd5b509092509050610873565b6040805160208082528351818301528351919283929083019185019080838360005b838110156102a9578181015183820152602001610291565b50505050905090810190601f1680156102d65780820380516001836020036101000a031916815260200191505b509250505060405180910390f35b3480156102f057600080fd5b5061016d6004803603602081101561030757600080fd5b50356001600160a01b03166108b9565b61034f6004803603608081101561032d57600080fd5b506001600160a01b03813516906020810135906040810135906060013561095c565b60408051918252519081900360200190f35b34801561036d57600080fd5b50610376610ad2565b604080519115158252519081900360200190f35b61034f600480360360a08110156103a057600080fd5b810190602081018135600160201b8111156103ba57600080fd5b8201836020820111156103cc57600080fd5b803590602001918460208302840111600160201b831117156103ed57600080fd5b9190808060200260200160405190810160405280939291908181526020018383602002808284376000920191909152509295949360208101935035915050600160201b81111561043c57600080fd5b82018360208201111561044e57600080fd5b803590602001918460208302840111600160201b8311171561046f57600080fd5b9190808060200260200160405190810160405280939291908181526020018383602002808284376000920191909152509295505082359350505060208101359060400135610ad7565b3480156104c457600080fd5b5061011e610b3d565b3480156104d957600080fd5b5061011e610b4c565b3480156104ee57600080fd5b5061026f600480360360a081101561050557600080fd5b6001600160a01b03823581169260208101358216926040820135909216916060820135919081019060a081016080820135600160201b81111561054757600080fd5b82018360208201111561055957600080fd5b803590602001918460018302840111600160201b8311171561057a57600080fd5b91908080601f016020809104026020016040519081016040528093929190818152602001838380828437600092019190915250929550610b5b945050505050565b3480156105c757600080fd5b5061011e600480360360208110156105de57600080fd5b50356001600160a01b0316610c03565b3480156105fa57600080fd5b5061011e6004803603602081101561061157600080fd5b50356001600160a01b0316610c14565b61026f600480360360c081101561063757600080fd5b6001600160a01b0382358116926020810135909116916040820135916060810135916080820135919081019060c0810160a0820135600160201b81111561067d57600080fd5b82018360208201111561068f57600080fd5b803590602001918460018302840111600160201b831117156106b057600080fd5b509092509050610ceb565b61034f600480360360808110156106d157600080fd5b506001600160a01b038135169060208101359060408101359060600135610dd4565b3480156106ff57600080fd5b5061011e6004803603602081101561071657600080fd5b50356001600160a01b0316610f21565b34801561073257600080fd5b5061011e610f3c565b34801561074757600080fd5b5061011e610f4b565b6004546001600160a01b031681565b6005546001600160a01b031633146107ab576040805162461bcd60e51b815260206004820152600a60248201526927a7262cafa7aba722a960b11b604482015290519081900360640190fd5b6001600160a01b0381166107f6576040805162461bcd60e51b815260206004820152600d60248201526c24a72b20a624a22fa7aba722a960991b604482015290519081900360640190fd5b600580546001600160a01b0319166001600160a01b0392909216919091179055565b6108228285610f5a565b600580546001600160a01b03199081166001600160a01b0397881617909155600080548216948716949094179093556006805490931694169390931790555050565b6001546001600160a01b031681565b6040805162461bcd60e51b815260206004820152601460248201527327a7262cafa7aaaa2127aaa7222fa927aaaa22a960611b6044820152905160609181900360640190fd5b6000546001600160a01b03163314610908576040805162461bcd60e51b815260206004820152600d60248201526c1393d517d19493d357d31254d5609a1b604482015290519081900360640190fd5b600080546001600160a01b0383166001600160a01b0319909116811790915560408051918252517f37389c47920d5cc3229678a0205d0455002c07541a4139ebdce91ac2274657779181900360200190a150565b6005546000906001600160a01b031633146109ab576040805162461bcd60e51b815260206004820152600a60248201526927a7262cafa7aba722a960b11b604482015290519081900360640190fd5b600480546001600160a01b0387166001600160a01b0319909116811790915560408051918252517f3a8f8eb961383a94d41d193e16a3af73eaddfd5764a4c640257323a1603ac3319181900360200190a160006001600160a01b03861615610a7557856001600160a01b0316632db09c1c6040518163ffffffff1660e01b815260040160206040518083038186803b158015610a4657600080fd5b505afa158015610a5a573d6000803e3d6000fd5b505050506040513d6020811015610a7057600080fd5b505190505b604080516001600160a01b0383166024808301919091528251808303909101815260449091019091526020810180516001600160e01b031663f7c9362f60e01b179052610ac733600086898986610f88565b979650505050505050565b600190565b6005546000906001600160a01b03163314610b26576040805162461bcd60e51b815260206004820152600a60248201526927a7262cafa7aba722a960b11b604482015290519081900360640190fd5b610b338686868686610fad565b9695505050505050565b6005546001600160a01b031681565b6000546001600160a01b031681565b6060848260405160200180836001600160a01b03166001600160a01b0316815260200180602001828103825283818151815260200191508051906020019080838360005b83811015610bb7578181015183820152602001610b9f565b50505050905090810190601f168015610be45780820380516001836020036101000a031916815260200191505b5060408051601f198184030181529190529a9950505050505050505050565b6000610c0e82611296565b92915050565b6001600160a01b03808216600090815260036020526040902054166001811415610c71576040805162461bcd60e51b815260206004820152600960248201526810931050d2d31254d560ba1b604482015290519081900360640190fd5b6001600160a01b038116610c8d57506004546001600160a01b03165b610c9f816001600160a01b0316611328565b610ce6576040805162461bcd60e51b81526020600482015260136024820152721393d7d1d0551155d05657d111541313d65151606a1b604482015290519081900360640190fd5b919050565b6000546060906001600160a01b031615610db9576000546040805163babcc53960e01b815233600482015290516001600160a01b039092169163babcc53991602480820192602092909190829003018186803b158015610d4a57600080fd5b505afa158015610d5e573d6000803e3d6000fd5b505050506040513d6020811015610d7457600080fd5b5051610db9576040805162461bcd60e51b815260206004820152600f60248201526e1393d517d5d2125511531254d51151608a1b604482015290519081900360640190fd5b610dc88888888888888861132e565b50979650505050505050565b6000610ddf33611328565b610e24576040805162461bcd60e51b81526020600482015260116024820152701393d517d19493d357d0d3d395149050d5607a1b604482015290519081900360640190fd5b610e36856001600160a01b0316611328565b610e79576040805162461bcd60e51b815260206004820152600f60248201526e1393d517d513d7d0d3d395149050d5608a1b604482015290519081900360640190fd5b604080516001808252818301909252606091602080830190803683370190505090503381600081518110610ea957fe5b6001600160a01b0392909216602092830291909101909101526040805160018082528183019092526060918160200160208202803683370190505090508681600081518110610ef457fe5b60200260200101906001600160a01b031690816001600160a01b031681525050610ac78282888888610fad565b6003602052600090815260409020546001600160a01b031681565b6002546001600160a01b031681565b6006546001600160a01b031681565b610f658260006115bb565b600480546001600160a01b0319166001600160a01b039290921691909117905550565b600654600154600091610ac7916001600160a01b039182169116898989898989611687565b60008451865114610ff4576040805162461bcd60e51b815260206004820152600c60248201526b0aea49e9c8ebe988a9c8ea8960a31b604482015290519081900360640190fd5b60005b86518110156111b25785818151811061100c57fe5b60200260200101516003600089848151811061102457fe5b60200260200101516001600160a01b03166001600160a01b0316815260200190815260200160002060006101000a8154816001600160a01b0302191690836001600160a01b0316021790555085818151811061107c57fe5b60200260200101516001600160a01b031687828151811061109957fe5b60200260200101516001600160a01b03167f812ca95fe4492a9e2d1f2723c2c40c03a60a27b059581ae20ac4e4d73bfba35460405160405180910390a360006001600160a01b03168682815181106110ed57fe5b60200260200101516001600160a01b0316146111aa5785818151811061110f57fe5b60200260200101516001600160a01b0316632db09c1c6040518163ffffffff1660e01b815260040160206040518083038186803b15801561114f57600080fd5b505afa158015611163573d6000803e3d6000fd5b505050506040513d602081101561117957600080fd5b5051865187908390811061118957fe5b60200260200101906001600160a01b031690816001600160a01b0316815250505b600101610ff7565b506060634201f98560e01b8787604051602401808060200180602001838103835285818151815260200191508051906020019060200280838360005b838110156112065781810151838201526020016111ee565b50505050905001838103825284818151815260200191508051906020019060200280838360005b8381101561124557818101518382015260200161122d565b50505050905001945050505050604051602081830303815290604052906001600160e01b0319166020820180516001600160e01b0383818316178352505050509050610ac733600085888886610f88565b60006112a182610c14565b6001600160a01b031663a7e28d48836040518263ffffffff1660e01b815260040180826001600160a01b03166001600160a01b0316815260200191505060206040518083038186803b1580156112f657600080fd5b505afa15801561130a573d6000803e3d6000fd5b505050506040513d602081101561132057600080fd5b505192915050565b3b151590565b6060600061133b89610c14565b905060606113828a338b8b89898080601f016020809104026020016040519081016040528093929190818152602001838380828437600092019190915250610b5b92505050565b604080516001600160a01b0385811682529151929350818c169233928e16917f85291dff2161a93c2f12c819d31889c96c63042116f5bc5a205aa701c2c429f5919081900360200190a4816001600160a01b031663d2ce7d65348c8c8c8c8c886040518863ffffffff1660e01b815260040180876001600160a01b03166001600160a01b03168152602001866001600160a01b03166001600160a01b0316815260200185815260200184815260200183815260200180602001828103825283818151815260200191508051906020019080838360005b83811015611470578181015183820152602001611458565b50505050905090810190601f16801561149d5780820380516001836020036101000a031916815260200191505b509750505050505050506000604051808303818588803b1580156114c057600080fd5b505af11580156114d4573d6000803e3d6000fd5b50505050506040513d6000823e601f3d908101601f1916820160405260208110156114fe57600080fd5b8101908080516040519392919084600160201b82111561151d57600080fd5b90830190602082018581111561153257600080fd5b8251600160201b81118282018810171561154b57600080fd5b82525081516020918201929091019080838360005b83811015611578578181015183820152602001611560565b50505050905090810190601f1680156115a55780820380516001836020036101000a031916815260200191505b5060405250505092505050979650505050505050565b6001600160a01b03821661160c576040805162461bcd60e51b81526020600482015260136024820152721253959053125117d0d3d55395115494105495606a1b604482015290519081900360640190fd5b6001546001600160a01b031615611659576040805162461bcd60e51b815260206004820152600c60248201526b1053149150511657d253925560a21b604482015290519081900360640190fd5b600180546001600160a01b039384166001600160a01b03199182161790915560028054929093169116179055565b600080896001600160a01b031663679b6ded348b8a8a8d8e8c8c8c6040518a63ffffffff1660e01b815260040180896001600160a01b03166001600160a01b03168152602001888152602001878152602001866001600160a01b03166001600160a01b03168152602001856001600160a01b03166001600160a01b0316815260200184815260200183815260200180602001828103825283818151815260200191508051906020019080838360005b8381101561174e578181015183820152602001611736565b50505050905090810190601f16801561177b5780820380516001836020036101000a031916815260200191505b5099505050505050505050506020604051808303818588803b1580156117a057600080fd5b505af11580156117b4573d6000803e3d6000fd5b50505050506040513d60208110156117cb57600080fd5b5051604080516020808252865182820152865193945084936001600160a01b03808f1694908e16937fc1d1490cf25c3b40d600dfb27c7680340ed1ab901b7e8f3551280968a3b372b0938a93919283929083019185019080838360005b83811015611840578181015183820152602001611828565b50505050905090810190601f16801561186d5780820380516001836020036101000a031916815260200191505b509250505060405180910390a4999850505050505050505056fea2646970667358221220782ce71dbdba187d0bdfea60f1b9610d71cd5fee490b7121ac5e0e4216a4694564736f6c634300060b0033",
  "linkReferences": {},
  "deployedLinkReferences": {}
}