{
  "abi": [
    {
      "inputs": [
        {
          "internalType": "address",
          "name": "_pot",
          "type": "address"
        }
      ],
      "stateMutability": "nonpayable",
      "type": "constructor"
    },
    {
      "inputs": [],
      "name": "drop",
      "outputs": [
        {
          "internalType": "uint256",
          "name": "",
          "type": "uint256"
        }
      ],
      "stateMutability": "view",
      "type": "function"
    },
    {
      "inputs": [],
      "name": "pot",
      "outputs": [
        {
          "internalType": "contract PotAbstract",
          "name": "",
          "type": "address"
        }
      ],
      "stateMutability": "view",
      "type": "function"
    }
  ],
  "bytecode": {
    "object": "0x608060405234801561001057600080fd5b5060405161055a38038061055a83398101604081905261002f91610054565b600080546001600160a01b0319166001600160a01b0392909216919091179055610084565b60006020828403121561006657600080fd5b81516001600160a01b038116811461007d57600080fd5b9392505050565b6104c7806100936000396000f3fe608060405234801561001057600080fd5b50600436106100365760003560e01c80634ba2363a1461003b578063f751cd8f1461005b575b600080fd5b6000546040516001600160a01b0390911681526020015b60405180910390f35b610063610071565b604051908152602001610052565b60008060009054906101000a90046001600160a01b03166001600160a01b03166320aba08b6040518163ffffffff1660e01b8152600401602060405180830381865afa1580156100c5573d6000803e3d6000fd5b505050506040513d601f19601f820116820180604052508101906100e9919061040a565b42036101695760008054906101000a90046001600160a01b03166001600160a01b031663c92aecc46040518163ffffffff1660e01b8152600401602060405180830381865afa158015610140573d6000803e3d6000fd5b505050506040513d601f19601f82011682018060405250810190610164919061040a565b905090565b61016461027560008054906101000a90046001600160a01b03166001600160a01b031663487bf0826040518163ffffffff1660e01b8152600401602060405180830381865afa1580156101c0573d6000803e3d6000fd5b505050506040513d601f19601f820116820180604052508101906101e4919061040a565b60008054906101000a90046001600160a01b03166001600160a01b03166320aba08b6040518163ffffffff1660e01b8152600401602060405180830381865afa158015610235573d6000803e3d6000fd5b505050506040513d601f19601f82011682018060405250810190610259919061040a565b6102639042610439565b6b033b2e3c9fd0803ce80000006102ef565b60008054906101000a90046001600160a01b03166001600160a01b031663c92aecc46040518163ffffffff1660e01b8152600401602060405180830381865afa1580156102c6573d6000803e3d6000fd5b505050506040513d601f19601f820116820180604052508101906102ea919061040a565b6103ad565b600083801561038f5760018416801561030a5785925061030e565b8392505b50600283046002850494505b841561038957858602868782041461033157600080fd5b8181018181101561034157600080fd5b859004965050600185161561037e57858302838782041415871515161561036757600080fd5b8181018181101561037757600080fd5b8590049350505b60028504945061031a565b506103a5565b83801561039f57600092506103a3565b8392505b505b509392505050565b60006b033b2e3c9fd0803ce80000006103c684846103d7565b6103d09190610450565b9392505050565b60008115806103fb575082826103ed8183610472565b92506103f99083610450565b145b61040457600080fd5b92915050565b60006020828403121561041c57600080fd5b5051919050565b634e487b7160e01b600052601160045260246000fd5b60008282101561044b5761044b610423565b500390565b60008261046d57634e487b7160e01b600052601260045260246000fd5b500490565b600081600019048311821515161561048c5761048c610423565b50029056fea26469706673582212209b8f7840a4d8371aba982ee5984ab85e56c474a2b5bf36637fb49875a37f210564736f6c634300080d0033",
    "linkReferences": {}
  }
}