{
  "abi": [
    {
      "inputs": [],
      "name": "VM_ADDR",
      "outputs": [
        {
          "internalType": "address",
          "name": "",
          "type": "address"
        }
      ],
      "stateMutability": "view",
      "type": "function"
    }
  ],
  "bytecode": {
    "object": "0x60a4610038600b82828239805160001a607314602b57634e487b7160e01b600052600060045260246000fd5b30600052607381538281f3fe730000000000000000000000000000000000000000301460806040526004361060335760003560e01c8063e583e738146038575b600080fd5b6052737109709ecfa91a80626ff3989d68f67f5b1dd12d81565b6040516001600160a01b03909116815260200160405180910390f3fea2646970667358221220c8f494a411a33aa8179044fadf339e6e09b397e4f33ee4eb9efa90811e5956cc64736f6c634300080d0033",
    "linkReferences": {}
  }
}