{
  "abi": [
    {
      "inputs": [
        {
          "internalType": "contract MCD",
          "name": "_mcd",
          "type": "address"
        }
      ],
      "stateMutability": "nonpayable",
      "type": "constructor"
    },
    {
      "inputs": [
        {
          "internalType": "contract GemJoinAbstract",
          "name": "join",
          "type": "address"
        },
        {
          "internalType": "uint256",
          "name": "amount",
          "type": "uint256"
        }
      ],
      "name": "createAuction",
      "outputs": [],
      "stateMutability": "nonpayable",
      "type": "function"
    }
  ],
  "bytecode": {
    "object": "0x608060405234801561001057600080fd5b5060405161149238038061149283398101604081905261002f91610054565b600080546001600160a01b0319166001600160a01b0392909216919091179055610084565b60006020828403121561006657600080fd5b81516001600160a01b038116811461007d57600080fd5b9392505050565b6113ff806100936000396000f3fe608060405234801561001057600080fd5b506004361061002b5760003560e01c8063f7e8829814610030575b600080fd5b61004361003e366004611133565b610045565b005b6000826001600160a01b0316637bd2bea76040518163ffffffff1660e01b8152600401602060405180830381865afa158015610085573d6000803e3d6000fd5b505050506040513d601f19601f820116820180604052508101906100a9919061115f565b90506000836001600160a01b031663c5ce281e6040518163ffffffff1660e01b8152600401602060405180830381865afa1580156100eb573d6000803e3d6000fd5b505050506040513d601f19601f8201168201806040525081019061010f9190611183565b6040516370a0823160e01b81523060048201529091506000906001600160a01b038416906370a0823190602401602060405180830381865afa158015610159573d6000803e3d6000fd5b505050506040513d601f19601f8201168201806040525081019061017d9190611183565b90506101936001600160a01b0384163086610a73565b604051636eb1769f60e11b81523060048201526001600160a01b0386811660248301526000919085169063dd62ed3e90604401602060405180830381865afa1580156101e3573d6000803e3d6000fd5b505050506040513d601f19601f820116820180604052508101906102079190611183565b60405163095ea7b360e01b81529091506001600160a01b0385169063095ea7b390610238908990899060040161119c565b6020604051808303816000875af1158015610257573d6000803e3d6000fd5b505050506040513d601f19601f8201168201806040525081019061027b91906111b5565b50604051633b4da69f60e01b81526001600160a01b03871690633b4da69f906102aa903090899060040161119c565b600060405180830381600087803b1580156102c457600080fd5b505af11580156102d8573d6000803e3d6000fd5b506102f1925050506001600160a01b0385163084610a73565b60405163095ea7b360e01b81526001600160a01b0385169063095ea7b39061031f908990859060040161119c565b6020604051808303816000875af115801561033e573d6000803e3d6000fd5b505050506040513d601f19601f8201168201806040525081019061036291906111b5565b5060008054604080516336569e7760e01b8152905183926001600160a01b0316916336569e779160048083019260209291908290030181865afa1580156103ad573d6000803e3d6000fd5b505050506040513d601f19601f820116820180604052508101906103d1919061115f565b6001600160a01b031663d9638d36866040518263ffffffff1660e01b81526004016103fe91815260200190565b60a060405180830381865afa15801561041b573d6000803e3d6000fd5b505050506040513d601f19601f8201168201806040525081019061043f91906111d7565b505092509250506000828883610455919061122d565b61045f919061124c565b90506000876001600160a01b031663313ce5676040518163ffffffff1660e01b8152600401602060405180830381865afa1580156104a1573d6000803e3d6000fd5b505050506040513d601f19601f820116820180604052508101906104c59190611183565b6104d090601261126e565b6104db90600a61136b565b6104e5908a61122d565b905060008054906101000a90046001600160a01b03166001600160a01b03166336569e776040518163ffffffff1660e01b8152600401602060405180830381865afa158015610538573d6000803e3d6000fd5b505050506040513d601f19601f8201168201806040525081019061055c919061115f565b604051637608870360e01b81526004810189905230602482018190526044820181905260648201526084810183905260a481018490526001600160a01b03919091169063760887039060c401600060405180830381600087803b1580156105c257600080fd5b505af11580156105d6573d6000803e3d6000fd5b5050505060008060009054906101000a90046001600160a01b03166001600160a01b03166336569e776040518163ffffffff1660e01b8152600401602060405180830381865afa15801561062e573d6000803e3d6000fd5b505050506040513d601f19601f82011682018060405250810190610652919061115f565b60405163bf353dbb60e01b81523060048201526001600160a01b03919091169063bf353dbb90602401602060405180830381865afa158015610698573d6000803e3d6000fd5b505050506040513d601f19601f820116820180604052508101906106bc9190611183565b905061074930600160008054906101000a90046001600160a01b03166001600160a01b03166336569e776040518163ffffffff1660e01b8152600401602060405180830381865afa158015610715573d6000803e3d6000fd5b505050506040513d601f19601f82011682018060405250810190610739919061115f565b6001600160a01b03169190610a83565b60008054906101000a90046001600160a01b03166001600160a01b03166336569e776040518163ffffffff1660e01b8152600401602060405180830381865afa15801561079a573d6000803e3d6000fd5b505050506040513d601f19601f820116820180604052508101906107be919061115f565b6001600160a01b0316631a0b287e896107d860028861124c565b6040516001600160e01b031960e085901b1681526004810192909252631cdc1bdd60e21b60248301526044820152606401600060405180830381600087803b15801561082357600080fd5b505af1158015610837573d6000803e3d6000fd5b5050505060008054906101000a90046001600160a01b03166001600160a01b031663c3b3ad7f6040518163ffffffff1660e01b8152600401602060405180830381865afa15801561088c573d6000803e3d6000fd5b505050506040513d601f19601f820116820180604052508101906108b0919061115f565b604051631db3312160e31b8152600481018a9052306024820181905260448201526001600160a01b03919091169063ed998908906064016020604051808303816000875af1158015610906573d6000803e3d6000fd5b505050506040513d601f19601f8201168201806040525081019061092a9190611183565b5060008054906101000a90046001600160a01b03166001600160a01b03166336569e776040518163ffffffff1660e01b8152600401602060405180830381865afa15801561097c573d6000803e3d6000fd5b505050506040513d601f19601f820116820180604052508101906109a0919061115f565b604051630d05943f60e11b8152600481018a9052631cdc1bdd60e21b6024820152604481018690526001600160a01b039190911690631a0b287e90606401600060405180830381600087803b1580156109f857600080fd5b505af1158015610a0c573d6000803e3d6000fd5b50505050610a66308260008054906101000a90046001600160a01b03166001600160a01b03166336569e776040518163ffffffff1660e01b8152600401602060405180830381865afa158015610715573d6000803e3d6000fd5b5050505050505050505050565b610a7e838383610a8e565b505050565b610a7e838383610dd3565b6040516370a0823160e01b81526001600160a01b0383811660048301528291908516906370a0823190602401602060405180830381865afa158015610ad7573d6000803e3d6000fd5b505050506040513d601f19601f82011682018060405250810190610afb9190611183565b03610b0557505050565b60005b60c8811015610d8d576000737109709ecfa91a80626ff3989d68f67f5b1dd12d6001600160a01b031663667f9d70868685604051602001610b4a92919061119c565b604051602081830303815290604052805190602001206040518363ffffffff1660e01b8152600401610b7d92919061119c565b6020604051808303816000875af1158015610b9c573d6000803e3d6000fd5b505050506040513d601f19601f82011682018060405250810190610bc09190611183565b9050737109709ecfa91a80626ff3989d68f67f5b1dd12d6001600160a01b03166370ca10bb868685604051602001610bf992919061119c565b60408051601f198184030181529082905280516020909101206001600160e01b031960e085901b168252610c3292918890600401611377565b600060405180830381600087803b158015610c4c57600080fd5b505af1158015610c60573d6000803e3d6000fd5b50506040516370a0823160e01b81526001600160a01b038781166004830152869350881691506370a0823190602401602060405180830381865afa158015610cac573d6000803e3d6000fd5b505050506040513d601f19601f82011682018060405250810190610cd09190611183565b03610cdc575050505050565b737109709ecfa91a80626ff3989d68f67f5b1dd12d6001600160a01b03166370ca10bb868685604051602001610d1392919061119c565b60405160208183030381529060405280519060200120846040518463ffffffff1660e01b8152600401610d4893929190611377565b600060405180830381600087803b158015610d6257600080fd5b505af1158015610d76573d6000803e3d6000fd5b505050505080610d8581611398565b915050610b08565b5060405162461bcd60e51b8152602060048201526015602482015274436f756c64206e6f74206769766520746f6b656e7360581b60448201526064015b60405180910390fd5b60405163bf353dbb60e01b81526001600160a01b03838116600483015282919085169063bf353dbb90602401602060405180830381865afa158015610e1c573d6000803e3d6000fd5b505050506040513d601f19601f82011682018060405250810190610e409190611183565b03610e4a57505050565b60005b60648112156110d2576000737109709ecfa91a80626ff3989d68f67f5b1dd12d6001600160a01b031663667f9d70868685604051602001610e8f92919061119c565b604051602081830303815290604052805190602001206040518363ffffffff1660e01b8152600401610ec292919061119c565b6020604051808303816000875af1158015610ee1573d6000803e3d6000fd5b505050506040513d601f19601f82011682018060405250810190610f059190611183565b9050737109709ecfa91a80626ff3989d68f67f5b1dd12d6001600160a01b03166370ca10bb868685604051602001610f3e92919061119c565b60408051601f198184030181529082905280516020909101206001600160e01b031960e085901b168252610f7792918890600401611377565b600060405180830381600087803b158015610f9157600080fd5b505af1158015610fa5573d6000803e3d6000fd5b505060405163bf353dbb60e01b81526001600160a01b0387811660048301528693508816915063bf353dbb90602401602060405180830381865afa158015610ff1573d6000803e3d6000fd5b505050506040513d601f19601f820116820180604052508101906110159190611183565b03611021575050505050565b737109709ecfa91a80626ff3989d68f67f5b1dd12d6001600160a01b03166370ca10bb86868560405160200161105892919061119c565b60405160208183030381529060405280519060200120846040518463ffffffff1660e01b815260040161108d93929190611377565b600060405180830381600087803b1580156110a757600080fd5b505af11580156110bb573d6000803e3d6000fd5b5050505050806110ca816113b1565b915050610e4d565b5060405162461bcd60e51b815260206004820152601a60248201527f436f756c64206e6f7420676976652061757468206163636573730000000000006044820152606401610dca565b6001600160a01b038116811461113057600080fd5b50565b6000806040838503121561114657600080fd5b82356111518161111b565b946020939093013593505050565b60006020828403121561117157600080fd5b815161117c8161111b565b9392505050565b60006020828403121561119557600080fd5b5051919050565b6001600160a01b03929092168252602082015260400190565b6000602082840312156111c757600080fd5b8151801515811461117c57600080fd5b600080600080600060a086880312156111ef57600080fd5b5050835160208501516040860151606087015160809097015192989197509594509092509050565b634e487b7160e01b600052601160045260246000fd5b600081600019048311821515161561124757611247611217565b500290565b60008261126957634e487b7160e01b600052601260045260246000fd5b500490565b60008282101561128057611280611217565b500390565b600181815b808511156112c05781600019048211156112a6576112a6611217565b808516156112b357918102915b93841c939080029061128a565b509250929050565b6000826112d757506001611365565b816112e457506000611365565b81600181146112fa576002811461130457611320565b6001915050611365565b60ff84111561131557611315611217565b50506001821b611365565b5060208310610133831016604e8410600b8410161715611343575081810a611365565b61134d8383611285565b806000190482111561136157611361611217565b0290505b92915050565b600061117c83836112c8565b6001600160a01b039390931683526020830191909152604082015260600190565b6000600182016113aa576113aa611217565b5060010190565b60006001600160ff1b0182016113aa576113aa61121756fea2646970667358221220a5eb444d4444ac62f84d4d226f4519e48a0db4a007aa4d2624cc9e35838cfe2264736f6c634300080d0033",
    "linkReferences": {}
  }
}