{
  "_format": "hh-sol-artifact-1",
  "contractName": "L2DAITokenBridge",
  "sourceName": "contracts/l2/L2DAITokenBridge.sol",
  "abi": [
    {
      "inputs": [
        {
          "internalType": "address",
          "name": "_l2Token",
          "type": "address"
        },
        {
          "internalType": "address",
          "name": "_l1Token",
          "type": "address"
        },
        {
          "internalType": "address",
          "name": "_l1DAITokenBridge",
          "type": "address"
        }
      ],
      "stateMutability": "nonpayable",
      "type": "constructor"
    },
    {
      "anonymous": false,
      "inputs": [],
      "name": "Closed",
      "type": "event"
    },
    {
      "anonymous": false,
      "inputs": [
        {
          "indexed": true,
          "internalType": "address",
          "name": "usr",
          "type": "address"
        }
      ],
      "name": "Deny",
      "type": "event"
    },
    {
      "anonymous": false,
      "inputs": [
        {
          "indexed": true,
          "internalType": "address",
          "name": "_l1Token",
          "type": "address"
        },
        {
          "indexed": true,
          "internalType": "address",
          "name": "_l2Token",
          "type": "address"
        },
        {
          "indexed": true,
          "internalType": "address",
          "name": "_from",
          "type": "address"
        },
        {
          "indexed": false,
          "internalType": "address",
          "name": "_to",
          "type": "address"
        },
        {
          "indexed": false,
          "internalType": "uint256",
          "name": "_amount",
          "type": "uint256"
        },
        {
          "indexed": false,
          "internalType": "bytes",
          "name": "_data",
          "type": "bytes"
        }
      ],
      "name": "DepositFinalized",
      "type": "event"
    },
    {
      "anonymous": false,
      "inputs": [
        {
          "indexed": true,
          "internalType": "address",
          "name": "usr",
          "type": "address"
        }
      ],
      "name": "Rely",
      "type": "event"
    },
    {
      "anonymous": false,
      "inputs": [
        {
          "indexed": true,
          "internalType": "address",
          "name": "_l1Token",
          "type": "address"
        },
        {
          "indexed": true,
          "internalType": "address",
          "name": "_l2Token",
          "type": "address"
        },
        {
          "indexed": true,
          "internalType": "address",
          "name": "_from",
          "type": "address"
        },
        {
          "indexed": false,
          "internalType": "address",
          "name": "_to",
          "type": "address"
        },
        {
          "indexed": false,
          "internalType": "uint256",
          "name": "_amount",
          "type": "uint256"
        },
        {
          "indexed": false,
          "internalType": "bytes",
          "name": "_data",
          "type": "bytes"
        }
      ],
      "name": "WithdrawalInitiated",
      "type": "event"
    },
    {
      "inputs": [],
      "name": "close",
      "outputs": [],
      "stateMutability": "nonpayable",
      "type": "function"
    },
    {
      "inputs": [
        {
          "internalType": "address",
          "name": "usr",
          "type": "address"
        }
      ],
      "name": "deny",
      "outputs": [],
      "stateMutability": "nonpayable",
      "type": "function"
    },
    {
      "inputs": [
        {
          "internalType": "address",
          "name": "_from",
          "type": "address"
        },
        {
          "internalType": "address",
          "name": "_to",
          "type": "address"
        },
        {
          "internalType": "address",
          "name": "_l1Token",
          "type": "address"
        },
        {
          "internalType": "uint256",
          "name": "_amount",
          "type": "uint256"
        },
        {
          "internalType": "bytes",
          "name": "_data",
          "type": "bytes"
        }
      ],
      "name": "finalizeDeposit",
      "outputs": [],
      "stateMutability": "nonpayable",
      "type": "function"
    },
    {
      "inputs": [],
      "name": "isOpen",
      "outputs": [
        {
          "internalType": "uint256",
          "name": "",
          "type": "uint256"
        }
      ],
      "stateMutability": "view",
      "type": "function"
    },
    {
      "inputs": [],
      "name": "l1DAITokenBridge",
      "outputs": [
        {
          "internalType": "address",
          "name": "",
          "type": "address"
        }
      ],
      "stateMutability": "view",
      "type": "function"
    },
    {
      "inputs": [],
      "name": "l1Token",
      "outputs": [
        {
          "internalType": "address",
          "name": "",
          "type": "address"
        }
      ],
      "stateMutability": "view",
      "type": "function"
    },
    {
      "inputs": [
        {
          "internalType": "address",
          "name": "",
          "type": "address"
        }
      ],
      "name": "l1TokenAddress",
      "outputs": [
        {
          "internalType": "address",
          "name": "",
          "type": "address"
        }
      ],
      "stateMutability": "view",
      "type": "function"
    },
    {
      "inputs": [],
      "name": "l2Token",
      "outputs": [
        {
          "internalType": "address",
          "name": "",
          "type": "address"
        }
      ],
      "stateMutability": "view",
      "type": "function"
    },
    {
      "inputs": [
        {
          "internalType": "address",
          "name": "",
          "type": "address"
        }
      ],
      "name": "l2TokenAddress",
      "outputs": [
        {
          "internalType": "address",
          "name": "",
          "type": "address"
        }
      ],
      "stateMutability": "view",
      "type": "function"
    },
    {
      "inputs": [
        {
          "internalType": "address",
          "name": "usr",
          "type": "address"
        }
      ],
      "name": "rely",
      "outputs": [],
      "stateMutability": "nonpayable",
      "type": "function"
    },
    {
      "inputs": [
        {
          "internalType": "address",
          "name": "",
          "type": "address"
        }
      ],
      "name": "wards",
      "outputs": [
        {
          "internalType": "uint256",
          "name": "",
          "type": "uint256"
        }
      ],
      "stateMutability": "view",
      "type": "function"
    },
    {
      "inputs": [
        {
          "internalType": "address",
          "name": "_l1Receiver",
          "type": "address"
        },
        {
          "internalType": "address",
          "name": "_l2Token",
          "type": "address"
        },
        {
          "internalType": "uint256",
          "name": "_amount",
          "type": "uint256"
        }
      ],
      "name": "withdraw",
      "outputs": [],
      "stateMutability": "nonpayable",
      "type": "function"
    }
  ],
  "bytecode": "0x60e0604052600180553480156200001557600080fd5b50604051620012cb380380620012cb83398181016040528101906200003b9190620001d1565b60016000803373ffffffffffffffffffffffffffffffffffffffff1673ffffffffffffffffffffffffffffffffffffffff168152602001908152602001600020819055503373ffffffffffffffffffffffffffffffffffffffff167fdd0e34038ac38b2a1ce960229778ac48a8719bc900b6c4f8d0475c6e8b385a6060405160405180910390a28273ffffffffffffffffffffffffffffffffffffffff1660a08173ffffffffffffffffffffffffffffffffffffffff16815250508173ffffffffffffffffffffffffffffffffffffffff1660808173ffffffffffffffffffffffffffffffffffffffff16815250508073ffffffffffffffffffffffffffffffffffffffff1660c08173ffffffffffffffffffffffffffffffffffffffff16815250505050506200022d565b600080fd5b600073ffffffffffffffffffffffffffffffffffffffff82169050919050565b600062000199826200016c565b9050919050565b620001ab816200018c565b8114620001b757600080fd5b50565b600081519050620001cb81620001a0565b92915050565b600080600060608486031215620001ed57620001ec62000167565b5b6000620001fd86828701620001ba565b93505060206200021086828701620001ba565b92505060406200022386828701620001ba565b9150509250925092565b60805160a05160c05161103d6200028e6000396000818161023d015261059401526000818161031e0152818161067a0152818161070f015281816107d80152610844015260008181610570015281816105ec01526107ae015261103d6000f3fe608060405234801561001057600080fd5b50600436106100b45760003560e01c8063bf353dbb11610071578063bf353dbb14610155578063c01e1bd614610185578063cfe7af7c146101a3578063d9caed12146101bf578063f54266a2146101db578063f5f151681461020b576100b4565b8063092d0ce3146100b957806343d726d6146100d757806347535d7b146100e157806356eff267146100ff57806365fae35e1461011d5780639c52a7f114610139575b600080fd5b6100c161023b565b6040516100ce91906109cf565b60405180910390f35b6100df61025f565b005b6100e9610316565b6040516100f69190610a03565b60405180910390f35b61010761031c565b60405161011491906109cf565b60405180910390f35b61013760048036038101906101329190610a54565b610340565b005b610153600480360381019061014e9190610a54565b61044b565b005b61016f600480360381019061016a9190610a54565b610556565b60405161017c9190610a03565b60405180910390f35b61018d61056e565b60405161019a91906109cf565b60405180910390f35b6101bd60048036038101906101b89190610b12565b610592565b005b6101d960048036038101906101d49190610bac565b61070d565b005b6101f560048036038101906101f09190610a54565b6107aa565b60405161020291906109cf565b60405180910390f35b61022560048036038101906102209190610a54565b6107d4565b60405161023291906109cf565b60405180910390f35b7f000000000000000000000000000000000000000000000000000000000000000081565b60016000803373ffffffffffffffffffffffffffffffffffffffff1673ffffffffffffffffffffffffffffffffffffffff16815260200190815260200160002054146102e0576040517f08c379a00000000000000000000000000000000000000000000000000000000081526004016102d790610c5c565b60405180910390fd5b60006001819055507f1cdde67b72a90f19919ac732a437ac2f7a10fc128d28c2a6e525d89ce5cd9d3a60405160405180910390a1565b60015481565b7f000000000000000000000000000000000000000000000000000000000000000081565b60016000803373ffffffffffffffffffffffffffffffffffffffff1673ffffffffffffffffffffffffffffffffffffffff16815260200190815260200160002054146103c1576040517f08c379a00000000000000000000000000000000000000000000000000000000081526004016103b890610c5c565b60405180910390fd5b60016000808373ffffffffffffffffffffffffffffffffffffffff1673ffffffffffffffffffffffffffffffffffffffff168152602001908152602001600020819055508073ffffffffffffffffffffffffffffffffffffffff167fdd0e34038ac38b2a1ce960229778ac48a8719bc900b6c4f8d0475c6e8b385a6060405160405180910390a250565b60016000803373ffffffffffffffffffffffffffffffffffffffff1673ffffffffffffffffffffffffffffffffffffffff16815260200190815260200160002054146104cc576040517f08c379a00000000000000000000000000000000000000000000000000000000081526004016104c390610c5c565b60405180910390fd5b60008060008373ffffffffffffffffffffffffffffffffffffffff1673ffffffffffffffffffffffffffffffffffffffff168152602001908152602001600020819055508073ffffffffffffffffffffffffffffffffffffffff167f184450df2e323acec0ed3b5c7531b81f9b4cdef7914dfd4c0a4317416bb5251b60405160405180910390a250565b60006020528060005260406000206000915090505481565b7f000000000000000000000000000000000000000000000000000000000000000081565b7f000000000000000000000000000000000000000000000000000000000000000073ffffffffffffffffffffffffffffffffffffffff163373ffffffffffffffffffffffffffffffffffffffff16146105ea57600080fd5b7f000000000000000000000000000000000000000000000000000000000000000073ffffffffffffffffffffffffffffffffffffffff168473ffffffffffffffffffffffffffffffffffffffff1614610678576040517f08c379a000000000000000000000000000000000000000000000000000000000815260040161066f90610cc8565b60405180910390fd5b7f000000000000000000000000000000000000000000000000000000000000000073ffffffffffffffffffffffffffffffffffffffff166340c10f1986856040518363ffffffff1660e01b81526004016106d3929190610ce8565b600060405180830381600087803b1580156106ed57600080fd5b505af1158015610701573d6000803e3d6000fd5b50505050505050505050565b7f000000000000000000000000000000000000000000000000000000000000000073ffffffffffffffffffffffffffffffffffffffff168273ffffffffffffffffffffffffffffffffffffffff161461079b576040517f08c379a000000000000000000000000000000000000000000000000000000000815260040161079290610cc8565b60405180910390fd5b6107a583826107fe565b505050565b60007f00000000000000000000000000000000000000000000000000000000000000009050919050565b60007f00000000000000000000000000000000000000000000000000000000000000009050919050565b6001805414610842576040517f08c379a000000000000000000000000000000000000000000000000000000000815260040161083990610d5d565b60405180910390fd5b7f000000000000000000000000000000000000000000000000000000000000000073ffffffffffffffffffffffffffffffffffffffff16639dc29fac33836040518363ffffffff1660e01b815260040161089d929190610ce8565b600060405180830381600087803b1580156108b757600080fd5b505af11580156108cb573d6000803e3d6000fd5b50505050600063882f6b9660e01b83836040516020016108ed93929190610e33565b6040516020818303038152906040529050600861800061090d9190610e9f565b73ffffffffffffffffffffffffffffffffffffffff166362f84b24826040518263ffffffff1660e01b81526004016109459190610f82565b6020604051808303816000875af1158015610964573d6000803e3d6000fd5b505050506040513d601f19601f820116820180604052508101906109889190610fda565b50505050565b600073ffffffffffffffffffffffffffffffffffffffff82169050919050565b60006109b98261098e565b9050919050565b6109c9816109ae565b82525050565b60006020820190506109e460008301846109c0565b92915050565b6000819050919050565b6109fd816109ea565b82525050565b6000602082019050610a1860008301846109f4565b92915050565b600080fd5b600080fd5b610a31816109ae565b8114610a3c57600080fd5b50565b600081359050610a4e81610a28565b92915050565b600060208284031215610a6a57610a69610a1e565b5b6000610a7884828501610a3f565b91505092915050565b610a8a816109ea565b8114610a9557600080fd5b50565b600081359050610aa781610a81565b92915050565b600080fd5b600080fd5b600080fd5b60008083601f840112610ad257610ad1610aad565b5b8235905067ffffffffffffffff811115610aef57610aee610ab2565b5b602083019150836001820283011115610b0b57610b0a610ab7565b5b9250929050565b60008060008060008060a08789031215610b2f57610b2e610a1e565b5b6000610b3d89828a01610a3f565b9650506020610b4e89828a01610a3f565b9550506040610b5f89828a01610a3f565b9450506060610b7089828a01610a98565b935050608087013567ffffffffffffffff811115610b9157610b90610a23565b5b610b9d89828a01610abc565b92509250509295509295509295565b600080600060608486031215610bc557610bc4610a1e565b5b6000610bd386828701610a3f565b9350506020610be486828701610a3f565b9250506040610bf586828701610a98565b9150509250925092565b600082825260208201905092915050565b7f4c32444149546f6b656e4272696467652f6e6f742d617574686f72697a656400600082015250565b6000610c46601f83610bff565b9150610c5182610c10565b602082019050919050565b60006020820190508181036000830152610c7581610c39565b9050919050565b7f4c32444149546f6b656e4272696467652f746f6b656e2d6e6f742d6461690000600082015250565b6000610cb2601e83610bff565b9150610cbd82610c7c565b602082019050919050565b60006020820190508181036000830152610ce181610ca5565b9050919050565b6000604082019050610cfd60008301856109c0565b610d0a60208301846109f4565b9392505050565b7f4c32444149546f6b656e4272696467652f636c6f736564000000000000000000600082015250565b6000610d47601783610bff565b9150610d5282610d11565b602082019050919050565b60006020820190508181036000830152610d7681610d3a565b9050919050565b60007fffffffff0000000000000000000000000000000000000000000000000000000082169050919050565b6000819050919050565b610dc4610dbf82610d7d565b610da9565b82525050565b60008160601b9050919050565b6000610de282610dca565b9050919050565b6000610df482610dd7565b9050919050565b610e0c610e07826109ae565b610de9565b82525050565b6000819050919050565b610e2d610e28826109ea565b610e12565b82525050565b6000610e3f8286610db3565b600482019150610e4f8285610dfb565b601482019150610e5f8284610e1c565b602082019150819050949350505050565b7f4e487b7100000000000000000000000000000000000000000000000000000000600052601160045260246000fd5b6000610eaa8261098e565b9150610eb58361098e565b92508273ffffffffffffffffffffffffffffffffffffffff03821115610ede57610edd610e70565b5b828201905092915050565b600081519050919050565b600082825260208201905092915050565b60005b83811015610f23578082015181840152602081019050610f08565b83811115610f32576000848401525b50505050565b6000601f19601f8301169050919050565b6000610f5482610ee9565b610f5e8185610ef4565b9350610f6e818560208601610f05565b610f7781610f38565b840191505092915050565b60006020820190508181036000830152610f9c8184610f49565b905092915050565b6000819050919050565b610fb781610fa4565b8114610fc257600080fd5b50565b600081519050610fd481610fae565b92915050565b600060208284031215610ff057610fef610a1e565b5b6000610ffe84828501610fc5565b9150509291505056fea2646970667358221220d904cfbdc850743e3d97c7198cff557b8311cee412a1894a51f9604f4e57ea6d64736f6c634300080f0033",
  "linkReferences": {},
  "deployedLinkReferences": {}
}