{
  "_format": "hh-sol-artifact-1",
  "contractName": "L2GovernanceRelay",
  "sourceName": "contracts/l2/L2GovernanceRelay.sol",
  "abi": [
    {
      "inputs": [
        {
          "internalType": "address",
          "name": "_l1GovernanceRelay",
          "type": "address"
        }
      ],
      "stateMutability": "nonpayable",
      "type": "constructor"
    },
    {
      "inputs": [],
      "name": "l1GovernanceRelay",
      "outputs": [
        {
          "internalType": "address",
          "name": "",
          "type": "address"
        }
      ],
      "stateMutability": "view",
      "type": "function"
    },
    {
      "inputs": [
        {
          "internalType": "address",
          "name": "target",
          "type": "address"
        },
        {
          "internalType": "bytes",
          "name": "targetData",
          "type": "bytes"
        }
      ],
      "name": "relay",
      "outputs": [],
      "stateMutability": "nonpayable",
      "type": "function"
    }
  ],
  "bytecode": "0x60a060405234801561001057600080fd5b5060405161054a38038061054a833981810160405281019061003291906100cf565b8073ffffffffffffffffffffffffffffffffffffffff1660808173ffffffffffffffffffffffffffffffffffffffff1681525050506100fc565b600080fd5b600073ffffffffffffffffffffffffffffffffffffffff82169050919050565b600061009c82610071565b9050919050565b6100ac81610091565b81146100b757600080fd5b50565b6000815190506100c9816100a3565b92915050565b6000602082840312156100e5576100e461006c565b5b60006100f3848285016100ba565b91505092915050565b60805161042e61011c6000396000818160770152609b015261042e6000f3fe608060405234801561001057600080fd5b50600436106100365760003560e01c80635892807d1461003b578063c28e83fd14610059575b600080fd5b610043610075565b60405161005091906101e7565b60405180910390f35b610073600480360381019061006e919061029d565b610099565b005b7f000000000000000000000000000000000000000000000000000000000000000081565b7f000000000000000000000000000000000000000000000000000000000000000073ffffffffffffffffffffffffffffffffffffffff163373ffffffffffffffffffffffffffffffffffffffff16146100f157600080fd5b60008373ffffffffffffffffffffffffffffffffffffffff16838360405161011a92919061033c565b600060405180830381855af49150503d8060008114610155576040519150601f19603f3d011682016040523d82523d6000602084013e61015a565b606091505b505080915050806101a0576040517f08c379a0000000000000000000000000000000000000000000000000000000008152600401610197906103d8565b60405180910390fd5b50505050565b600073ffffffffffffffffffffffffffffffffffffffff82169050919050565b60006101d1826101a6565b9050919050565b6101e1816101c6565b82525050565b60006020820190506101fc60008301846101d8565b92915050565b600080fd5b600080fd5b610215816101c6565b811461022057600080fd5b50565b6000813590506102328161020c565b92915050565b600080fd5b600080fd5b600080fd5b60008083601f84011261025d5761025c610238565b5b8235905067ffffffffffffffff81111561027a5761027961023d565b5b60208301915083600182028301111561029657610295610242565b5b9250929050565b6000806000604084860312156102b6576102b5610202565b5b60006102c486828701610223565b935050602084013567ffffffffffffffff8111156102e5576102e4610207565b5b6102f186828701610247565b92509250509250925092565b600081905092915050565b82818337600083830152505050565b600061032383856102fd565b9350610330838584610308565b82840190509392505050565b6000610349828486610317565b91508190509392505050565b600082825260208201905092915050565b7f4c32476f7665726e616e636552656c61792f64656c656761746563616c6c2d6560008201527f72726f7200000000000000000000000000000000000000000000000000000000602082015250565b60006103c2602483610355565b91506103cd82610366565b604082019050919050565b600060208201905081810360008301526103f1816103b5565b905091905056fea2646970667358221220a77949f9ba6f2dd651f644111265465e1a1a4382cd704964eb038410cd622fae64736f6c634300080f0033",
  "linkReferences": {},
  "deployedLinkReferences": {}
}